:400000000080002011000000750100007501000008B5044B1A6803F53F5302331A6000F0ABF800BFFA46004010B5054C237833B9044B13B10448AFF300800123237010BDE8
:400040002081FF1F00000000900F0000084B10B51BB108480849AFF300800848036803B910BD074B002BFBD0BDE81040184700BF00000000900F00002481FF1F0881FF1FD3
:400080000000000010B562B600F020FF00F054F82A2000F035F8002000F040F8142000F03DF8002000F03AF81D2000F037F82B2000F026F8002000F031F8322000F02EF878
:4000C000002000F02BF83B2000F028F82C2000F017F8002406E0FF2000F020F80F2000F01DF80134632CF6DD002000F009F810BD08B500F0FDFC00F00FFDFFF7C3FFFEE7FE
:4001000010B50446002000F0EFFE204600F0A0FE00F092FE10F0010FFAD010BD10B50446012000F0E1FE204600F092FE00F084FE10F0010FFAD010BD08B50120FFF7E0FFE7
:400140000A2000F013FE3620FFF7DAFF8820FFF7E5FF3A20FFF7D4FF5520FFF7DFFF1120FFF7CEFF2920FFF7CBFFFA2000F0FEFD08BD00BFFEE700BF08B5104E104D16E0A9
:4001800029686B68AC68002204E051F8040B43F8040B0432A242F8D1E868002203E0002143F8041B04328242F9D11035013E002EE6D100F0B3FEFFF79BFFFEE70100000028
:4001C0000810000008B5124A124B1A60124A136843F40073136000230AE0032B03D80F4A52F8231000E00E490E4A42F8231001332F2BF2D90C4B1A780C4B1A70094A0C4B4E
:400200001A6000F0D9F800220A4B1A6008BD00BF0004FA050CED00E014ED00E000000000750100000080FF1FBC7600400481FF1F08ED00E00081FF1FFEE700BFF0B400224A
:40024000174611E050F82760F3B226F0FF0608E001EB420511F812406D78A5550132013BDBB2002BF4D10137182FEBD9F0BC70470A4B1B78DBB203F00701094A11701B0952
:40028000013213702022074B1A70022203F693131A704422A3F28A231A707047CF0100496E5800406D51004008B50A46002100F066FE08BD08B500F057FE08BD38B50024F8
:4002C000314B1C80502202331A70012202331A8018232E4A13700B2102321180023213702B482C490422FFF7E5FF02222A4B1A7008224FF040231A70032103F5007319706C
:40030000264B1B78DBB226490B70264B1A8041F25122023B1A8019250CE0234B1B7803F0010343EA440404F003044FF4F07000F00BFD013D0DB1032CEFD115B90320FFF7BB
:400340007BFF1A4B4FF480721A8007221A70002217490A704820023108701A700222033B1A7004220A331A70124A137843F007031370013A137843F001031370013A1378BD
:4003800043F08003137038BD804000408640004000410040680300480043004008010049A146004022420040254200400440004006400040A243004070B572B6364A137807
:4003C00043F00403137000240CE0344963001A1952000A4423445B00C8589188FFF764FF0134E4B20A2CF0D900240BE02B49A3001A1952000A44506C916C8022FFF75AFFBC
:400400000134E4B2002CF1D04FF090402449FFF715FF0A22234B1A70234A137843F0020313701032137843F0020313701F4C237843F040032370A2F58632513A137843F078
:40044000100313701A481B490822FFF733FF1A481A490822FFF72EFF19481A490822FFF729FF194819490822FFF724FF184A137843F008031370174E01253570FFF71EFFB9
:4004800081233370144B1D70FFF7F2FE134821460E22FFF70FFF70BDE8460040940F0000640000488358004003500140A043004002510040480300482251004050030048FD
:4004C00042510040580300486251004060030048224300400048004004000840B043004038B59DF81040651EEDB2032D4AD80138092826D8DFE800F00525250525250D1517
:40050000251D0F2B02D9214800781BE02048007818E00F2B02D91F48007813E01E48007810E00F2B02D91D4800780BE01C48007808E00F2B02D91B48007803E01A480078AD
:4005400000E0002040B201EB401101FB02F2D20B91B20D2B0BD8C3F10E0192B20A4191B2124A02EB8402013302F8023C05E00F4B03EB84030F2203F8022C013C0B4B23F895
:40058000241038BD002000F0EFFB38BD180100491C010049190100491D0100491A0100491E0100491B0100491F0100493C81FF1FF8B5074600F0D0FB06460D4D2B7843F0EB
:4005C00003032B700B4C237843F0030323700A4B1F70032000F0E0FB2B7803F0FC032B70237803F0FC032370304600F0B9FBF8BDF8460040F946004092580040F8B504468D
:400600000022B94B1A74012856D13422B74B1A70062202331A700923B54A1370002501321570013215701F210132117002321570013215700132157001260A32167014216F
:4006400002F527621170013213700A27A94B1F7001331D70112203331A70122201331A7001331E7002331D7001331D7001331F70432201331A704420FFF79AFF58229E4BE8
:400680001A7001331D70052205331A7001331E7001331D7001331F704FF4FA62974B1A602C20314600F060FAB620314600F0E0FA1D20934900F07AFB022C5AD138228B4B9A
:4006C0001A70042202331A70072201331A70002501331D7001331D703F2201331A7002331D7001331D7001331D7001260A331E70502203F527631A70272201331A702C22D5
:4007000001331A7001331D70552203331A705A2201331A70052701331F7002331E70112201331A70192201331A70972201331A704420FFF73DFF58226F4B1A7001331D70A1
:4007400005331F7001331E7001331D700A2201331A704FF4FA42694B1A600820314600F003FA2520314600F083FA1D20654900F01DFB032C5AD138225C4B1A7004220233B0
:400780001A70072201331A70002501331D7001331D703F2201331A7002331D7001331D7001331D7001260A331E70502203F527631A70272201331A702C2201331A70013307
:4007C0001D70552203331A705A2201331A70052701331F7002331E70112201331A70192201331A70972201331A704420FFF7E0FE5822414B1A7001331D7005331F70013364
:400800001E7001331D700A2201331A704FF4FA423A4B1A600820314600F0A6F92520314600F026FA1D20384900F0C0FA042C5AD138222E4B1A70042202331A7007220133A5
:400840001A70002401331C7001331C703F2201331A7002331C7001331C7001331C7001250A331D70502203F527631A70272201331A702C2201331A7001331C7055220333FC
:400880001A705A2201331A70052601331E7002331D70112201331A70192201331A70972201331A704420FFF783FE5822124B1A7001331C7005331E7001331D7001331C7021
:4008C0000A2201331A704FF4FA420C4B1A600820294600F049F92520294600F0C9F91D200A4900F063FAF8BD3C81FF1F004E0040034E004086580040945800405481FF1FC6
:40090000290B00002D0B0000310B0000350B00002DE9F04182B0394E4FF0010886F80080374F00247C74102000F00CF9102000F08DF91D20072100F04DFA0425314B1D7056
:4009400001331C7007331C702F4A137843F0180313702E4B1C7003F2F5231C7001331C700A22A3F209331A7001331C7002331C70122205331A70132201331A7004331C700A
:400980001422A3F68C231A70CDF80080284648F6B6514FF400420C23FFF7A2FD02230093284649F2DA014FF400421023FFF798FD03230093284649F2DA014FF4004210237A
:4009C000FFF78EFD0095284649F2DA014FF400421023FFF785FD337807EB830313F8022C0B4B1A703378013B37F82320094B1A803078FFF703FE02B0BDE8F0810C81FF1F98
:400A00003C81FF1F96580040075B0040935800400E4E00400C4E004070B500F09DF906462A4B1B782A4B1A7842F001021A701A7842F010021A7010331A7842F001021A70F1
:400A40001A7842F010021A70224D2B7843F002032B70214C237843F0020323701F4A137843F003031370032000F096F92B7803F0FD032B70237803F0FD032370184A1378CD
:400A800043F0060313707A22164B1A70164A137843F0010313701032137843F0010313700F3A137843F0010313701032137843F0010313704FF000530C4A1360A2F5C0728B
:400AC0001360304600F04CF970BD00BF0C81FF1FAA430040F8460040F9460040915800407758004082580040A143004080E200E008B5084B9B7C4BB9064BDB7C13F0FF0F7B
:400B000001D1FFF705FF0122024B9A74FFF784FF08BD00BF3C81FF1F024A137843F0010313707047004E0040704700BF704700BF704700BF704700BF014B188880B2704710
:400B400080400040034B1A7800F0F80010431870704700BF82400040024B187800F00700704700BF8240004070B505460E46FFF7F3FF0446FFF7E0FF854256D02B4B1B784D
:400B800003F0010294B900B185B938B9284B1D80284A137803F0BF03137070BD254A137843F040031370224B1D8070BD22B3002321490B7001240F310C7004310B700C39C3
:400BC0000B7803F07F030B701A4B1B7813F0080F00D08DB9194B18800721013B1970164B1B7813F0010FFAD110490B7803F0FE030B700021104B19700C4B1B7813F0010F52
:400C00000DD00E4B1D800EB1032200E001220A4B1A70094B1B7813F0010FFAD170BD044B1D8002490B7813430B7070BDA24300408040004082400040014000400240004047
:400C4000014B188880B2704700410040034B1A7800F0F80010431870704700BF02410040024B187800F00700704700BF0241004070B505460E46FFF7F3FF0446FFF7E0FFEA
:400C8000854256D02B4B1B7803F0010294B900B185B938B9284B1D80284A137803F0BF03137070BD254A137843F040031370224B1D8070BD22B3002321490B700124133139
:400CC0000C7004390B7008390B7803F07F030B701A4B1B7813F0080F00D08DB9194B18800721013B1970164B1B7813F0010FFAD110490B7803F0FE030B700021104B1970D9
:400D00000C4B1B7813F0010F0DD00E4B1D800EB1032200E001220A4B1A70094B1B7813F0010FFAD170BD044B1D8002490B7813430B7070BDA143004000410040024100404B
:400D400001400040024000400230800803D000BF01380046FCD17047EFF3108072B6704780F31088704700BF01BE704710B5044605E0084B1868FFF7E7FFA4F50044B4F5B0
:400D8000004FF6D8034B586800FB04F0FFF7DCFF10BD00BF1081FF1F08B5034B1B7A03FB00F0FFF7D1FF08BD1081FF1F70B504460E46074B1D681F2802D90020FFF7D4FFA0
:400DC00004F01F04103455F8240045F8246070BD08ED00E038B504460D46072902D90020FFF7C2FF1F2C02D90020FFF7BDFF04F01F0000F1604000F564406D01EDB2057041
:400E000038BD00BF08B5FFF7A7FF0A4A137843F0200313700232137843F010031370013A137843F010031370FFF79AFF00F068F808BD00BF9D640040014B1878704700BFE0
:400E40006F640040014B1878704700BF6E640040034B1B7813F0040FFAD0024B187070476F6400404E64004008B501E00A4B1B780A4B1B7813F0200FF8D1FFF76DFF084B8B
:400E80001A7842F001021A701A7802F0FE021A70FFF766FF08BD00BF5E6400406E6400409E64004008B50F22064B1A70FFF7DCFFFFF7C2FFFFF7C6FF0023034A1370013A64
:400EC000137008BD8D6400408F64004008B5054B1B7823B9FFF7E6FF0122024B1A70FFF791FF08BD5081FF1F044A137803F0DF03400100F020001843107070472051004079
:400F0000054A137843F0040313701032137843F004031370704700BFA24300400E4B70B51E460E4C0025E41AA410A54204D056F8253098470135F8E700F054F8084B094CAC
:400F40001E46E41AA4100025A54204D056F8253098470135F8E770BDF00F0000F00F0000F00F0000F80F000010B5431E0A44914204D011F8014B03F8014FF8E710BD034603
:400F80000244934202D003F8011BFAE77047000000000000105100401000305100401000505100401000C05100401000F0510040100000000140000E800E0140800100147D
:400FC0000140000800400140000A004C014000020050014020000000000E0140C802004880000000F8B500BFF8BC08BC9E4670474D000000C5010000F8B500BFF8BC08BC86
:401000009E46704729000000181000000881FF1F180000004000000000000000010000000000E02EC05D00001800000000366E0100000000000000000000000000000000DC
:401040000000000000000000000000000000000000000000000000000000000000000000000000000000000000000000000000000000000000000000000000000000000070
:401080000000000000000000000000000000000000000000000000000000000000000000000000000000000000000000000000000000000000000000000000000000000030
:4010C00000000000000000000000000000000000000000000000000000000000000000000000000000000000000000000000000000000000000000000000000000000000F0
:4011000000000000000000000000000000000000000000000000000000000000000000000000000000000000000000000000000000000000000000000000000000000000AF
:020000040003F7
:0200000480007A
:400000000452004001640040260201401203014004040140010501400207014001090140030B0140460C01403D0D01400D0E0140300F014001150140011B0140044101401E
:40004000024401401045014006460140024701400248014001490140014C0140024D014003500140000101011058111C8D0F0F03100D1222143E160119021F0124022610ED
:400080002E1A3003310332183303340436203E50401249FF4AFF4BFF4D204EF0511052035610580459045A045B045C115D115F0160406160624063A864400EA01540170480
:4000C0001DA01EE027A0361037803E4045A06D406F048320C230C4A0CC30CE10D030B880BE40D804DF011F40AF40E808E808AE10B410EC0800100418050906070706081029
:400100000A03160219051B0A1D021F0D2503270C28052A08310F3203341C3A203B02580459045C225F0180048456852186098758880189028B088C048D0A900491089570ED
:400140009604980499089B029D0AA007A108A238A302A40AA513A610A724A860A92CAB43AC04AD02B27FB371B50FB808B908BB20D602D72CD804D904DB04DC22DD20DF01C1
:40018000001801410404051006400A540E2012261302160818101C081D101E202004210822202440278029102A482B402E08302031083202334036203780388439503C0828
:4001C0003E403F806040686069116A546B4070407201810888018A088B02940496519A4C9D10A202A461AE40AF10C07FC22EC44FCA4FCC3FCE4ED801E001840388028A01E3
:40020000A802AA01B002B601BE41D409D804DB04DD20DF010084014003080404051008480AD910A816081720184019021B181E021F0121052206232028482A48302832403C
:400240003804394240444104488949184A8052545C805D0A5F1062906320670278807A01C067C20FC44ECA0FCC0ECE0BD007D20CD6F0D81EEC10EC105F808380D620E28020
:400280007C01DE010502530157015C015F08630166086702830189029401C004D401D607D801E20145089F08AF01B608D001E808A508AF082510C820B510A508B508EC0893
:4002C000000608020E040000000A00300209043202000D003D2600000D0030003D3A0005012202043D220004002610003D070018020408220004000020380F071000000066
:4003000000000802000011002603400005DEFC0B1FFFFFFF2200F008040000004000000004040404222200010000C00040011011C00100114001400100000000000000000A
:400340000000000000000000000101000100000002FCFC00DC00000000FEFE00000000000000000000002000B60018010000000000000000000000000000000000000000B9
:40038000000000000000000000000000000000000000000000000000000000000000000000000000000000000000000000000000000000000000000000000000000000003D
:4003C00000000000000000000000000000000000000000000000000000000000000000000000000000000000000000000000000000000000000000000000000000000000FD
:4004000000000000000000000000000000000000000000000000000000000000000000000000000000000000000000000000000000000000000000000000000000000000BC
:40044000000000000000000000000000000000000000000000000000000000000000000000000000000000000000000000000000000000000000000000000000000000007C
:0200000490006A
:0400000000004005B7
:0200000490105A
:04000000BC90ACAF55
:0200000490303A
:0200000004E119
:0200000490402A
:4000000000000000000000000000000000000000000000000000000000000000000000000000000000000000000000000000000000000000000000000000000000000000C0
:400040000000000000000000000000000000000000000000000000000000000000000000000000000000000000000000000000000000000000000000000000000000000080
:400080000000000000000000000000000000000000000000000000000000000000000000000000000000000000000000000000000000000000000000000000000000000040
:4000C0000000000000000000000000000000000000000000000000000000000000000000000000000000000000000000000000000000000000000000000000000000000000
:0200000490501A
:0C00000000012E12306900012E18354A54
:00000001FF