:400000000080002011000000450400004504000008B5044B1A6803F53F5302331A6000F02BFA00BFFA46004010B5054C237833B9044B13B10448AFF300800123237010BDC0
:400040009081FF1F00000000CC1D0000084B10B51BB108480849AFF300800848036803B910BD074B002BFBD0BDE81040184700BF00000000CC1D00009481FF1F0881FF1F5F
:40008000000000002DE9F84307460E46414B1D8835B95B8823B93F4B18805980BDE8F883BD4236D02C46BD4228BF3C46BD4238BF3D462A2000F08CF9200A00F097F9E0B202
:4000C00000F094F9280A00F091F9E8B200F08EF92B2000F07DF94FEA1629484600F086F95FFA86F8404600F081F9484600F07EF9404600F07BF92C2000F06AF907E0FF2055
:4001000000F074F90F2000F071F90134A4B2AC42F5D9204B5D88AE4236D03446AE4228BF2C46B54238BF35462A2000F051F94FEA1729484600F05AF95FFA87F8404600F004
:4001400055F9484600F052F9404600F04FF92B2000F03EF9200A00F049F9E0B200F046F9280A00F043F9E8B200F040F92C2000F02FF907E0FF2000F039F90F2000F036F920
:400180000134A4B2AC42F5D9024B1F805E80BDE8F88300BFAC81FF1F10B501F093F800F033F92A2000F014F9002000F01FF9002000F01CF9012000F019F93F2000F016F992
:4001C0002B2000F005F9002000F010F9002000F00DF9002000F00AF9EF2000F007F92C2000F0F6F8002406E0002000F0FFF8002000F0FCF80134B4F5963FF5DB024B002056
:400200001880588010BD00BFAC81FF1F10B53AB1002000F07DFE104B00221A715A7110BD41EA00210D4B5C5C0D4B1C70012000F06FFE00F073FE084A53792344537101E053
:4002400000F06CFE0128FBD1064B1A78024B1A71032000F05DFE10BDAC81FF1FD01D0000226400400264004070B588B062B600F01BFC012000F0CCFB06AB504A10685168C5
:4002800003C3002001460122FFF7C0FF00241FE008AB03EB440313F8086C13F8075C304629460022FFF7B2FF012000F0B1FB444B1B79009302A8434932462B4601F07CF99B
:4002C00002A800F097FB4FF4FA6000F04BFF0134032CDDDD012000F09BFB02A83A49384B1A7901F069F902A800F084FB4FF4FA6000F038FF00F0AEFD00F0C0FD01F0DCF8B6
:4003000001F0E8F8FFF748FF78240025002000F0BDFD30B300F0D2FD83B2294AD380002803DA0022264BDA8007E040F6FE72934203D940F6FF72224BDA80214BDB88C3EB6C
:4003400003131B01214D85FB03251D44DB17C3EBE525ADB228462146FFF794FE322000F001FF002001F0BEF80028CFD001F0CCF883B2134AD380002803DA0022104BDA8028
:4003800007E040F6FE72934203D940F6FF720C4BDA800B4BDB88C3EB03131B010B4C84FB03241C44DB17C3EBE424A4B228462146FFF768FE322000F0D5FEA7E7D01D0100F1
:4003C000AC81FF1FD81D0100E81D01008100088010B50446002000F083FF204600F034FF00F026FF10F0010FFAD010BD10B50446012000F075FF204600F026FF00F018FFB1
:4004000010F0010FFAD010BD08B50120FFF7E0FF0A2000F0A7FE3620FFF7DAFF8820FFF7E5FF3A20FFF7D4FF5520FFF7DFFF1120FFF7CEFF2920FFF7CBFFFA2000F092FEF9
:4004400008BD00BFFEE700BF08B5094B1A681044084BC31AB3F5805F02DC054B186005E001F06AF80C2303604FF0FF32104608BD0C81FF1FE881FF1F08B5104E104D16E01B
:4004800029686B68AC68002204E051F8040B43F8040B0432A242F8D1E868002203E0002143F8041B04328242F9D11035013E002EE6D101F047F8FFF7D7FEFEE7010000005B
:4004C000A41E010008B5124A124B1A60124A136843F40073136000230AE0032B03D80F4A52F8231000E00E490E4A42F8231001332F2BF2D90C4B1A780C4B1A70094A0C4BA0
:400500001A6000F021F900220A4B1A6008BD00BF0004FA050CED00E014ED00E000000000450400000080FF1FBC7600400481FF1F08ED00E00081FF1FFEE700BFF0B400222B
:40054000174611E050F82760F3B226F0FF0608E001EB420511F812406D78A5550132013BDBB2002BF4D10137192FEBD9F0BC704708B50A46002101F016F808BDF8B5194BB3
:400580001B78DBB2184E3478E4B2184F3D78EDB203F00701164A11701B090132137044F00303337045F003033B704023A2F25272137020220F490A7001F29C710B7002313F
:4005C0000B7002210C4B197004212833197003331A700A2000F0DCFD3D7034704422074B1A70F8BDCF010049F8460040F94600406E5800406D510040005B004076580040B6
:4006000008B500F0C5FF08BD38B50024334B1C80502202331A70012202331A80182330490B7002310A802F4A13700B2102321180023213702C482D490422FFF7E1FF02229C
:400640002B4B1A7008224FF040231A70032103F500731970274B1B78DBB227490B70274B1A8041F25122023B1A8019250CE0244B1B7803F0010343EA440404F003044FF430
:40068000F07000F05DFD013D0DB1032CEFD115B90320FFF751FF1B4B4FF480721A8007221A70002218490A704820023108701A700222033B1A7004220A331A70134A13782B
:4006C00043F00F031370013A137843F001031370013A137843F08003137038BD80400040864000408A400040004100409C0300480043004008010049A146004022420040A6
:40070000254200400440004006400040A2430040012807D8044B53F820201844017A13780B431370704700BFF81D0100012808D8044B53F820201844017A137823EA0103EC
:4007400013707047F81D010070B572B6384A137843F00403137000240AE0364963001A1952000A44D068118AFFF702FF0134E4B2082CF2D900240BE02E49A3001A1952000D
:400780000A44506C916C8022FFF73AFF0134E4B2002CF1D04FF090402749FFF7CFFE0A22264B1A70264A137843F0020313701032137843F002031370224C237843F0400383
:4007C0002370A2F58632513A137843F0100313701D481E490822FFF713FF1D481D490822FFF70EFF1C481D490822FFF709FF1C481C490822FFF704FF1B481C490822FFF77C
:40080000FFFE1B4A137843F008031370194E01253570FFF7F9FE81233370174B1D70FFF7ADFE164821460E22FFF7EAFE70BD00BFE8460040F81D0100680000488358004006
:4008400003500140A04300400251004074030048125100407C0300482251004084030048525100408C0300486251004094030048224300400048004004000840B04300404B
:4008800010B50B4C237803F09F032370237803F0F00323702378184340F010002070012000F076FC237803F0EF03237010BD00BF2051004038B505460E4C237843F0200329
:4008C0002370237803F0BF032370002000F060FC237803F0F003237023781D4345F010052570012000F054FC237803F0EF03237038BD00BF2051004070B5354B1A7802F026
:400900008002D2B21A7033490A7802F0F00242F00F020A7001310A7802F0F0020A7001310A7802F0F0020A701A7802F0DF021A701A7842F040021A704FF4CA76002000F052
:4009400027FC234D2B7843F010032B70012000F01FFC214B1C78E4B22B7803F0EF032B70002000F015FC04F00804E4B22B7843F010032B70012000F00BFC2B7803F0EF03A0
:400980002B7014B90A2000F003FC013E0CB1002ED4D10F4A137803F0BF031370137803F08003DBB213700232137803F0F00313700132137803F0F00343F00F0313700132F3
:4009C000137803F0F00343F00F03137070BD00BF20510040225100402151004010B50446FFF78AFF2009FFF765FF04F00F00FFF761FF10BD38B505460078012404E0FFF7D6
:400A0000EDFF285D0134E4B20028F8D138BD00BF10B50446FFF770FF2009FFF731FF04F00F00FFF72DFF10BD08B5282000F09AFB0320FFF725FF052000F094FB0320FFF79C
:400A40001FFF0F2000F08EFB0320FFF719FF012000F088FB0220FFF713FF052000F082FB0620FFF7D5FF0E20FFF7D2FF2C20FFF7CFFF0820FFF7CCFF0120FFF7C9FF0C2046
:400A8000FFF7C6FF0320FFF7C3FF052000F06AFB08BD00BF08B50C20FFF7BAFF0122014B1A7008BDB481FF1F08B5054B5B7823B9FFF7BAFF0122024B5A70FFF7EBFF08BDAF
:400AC000B481FF1F10B59DF80840012C4AD10138092826D8DFE800F00525250525250D15251D0F2B02D9214800781BE02048007818E00F2B02D91F48007813E01E4800780A
:400B000010E00F2B02D91D4800780BE01C48007808E00F2B02D91B48007803E01A48007800E0002040B201EB401101FB02F1C90B8AB20D2B0BD8C3F10E0289B211418AB2A1
:400B4000124901EB8401013301F8023C05E00F4B03EB84030F2103F8021C013C0B4B23F8242010BD002000F0FBFA10BD180100491C010049190100491D0100491A010049BA
:400B80001E0100491B0100491F010049B881FF1FF8B5074600F0DCFA06460D4D2B7843F003032B700B4C237843F0030323700A4B1F70032000F0ECFA2B7803F0FC032B7000
:400BC000237803F0FC032370304600F0C5FAF8BDF8460040F9460040925800400022314B1A7101285DD170B534222F4B1A70062202331A70082201331A70002401331C7022
:400C000001331C701F2201331A7002331C7001331C7001331C7001250A331D70142203F527631A70052601331E70162201331A7001331C70442203331A70482201331A7091
:400C400001331D7002331C7001331C700A2201331A70432201331A705220FFF799FF5822124B1A7001331C7005331E70022201331A7001331C7001331C70204600F05AFB31
:400C800040F233320A4B1A602C20294600F066F9B620294600F0E6F91D20064900F082FA70BD7047B881FF1F004E004094580040CC81FF1F0D0F0000F0B583B0284D0127C7
:400CC0002F70284E00247471102000F035F9102000F0B6F91D20072100F078FA0422224B1A7001331C7007331C70204A137843F0180313701E4B1C7003F2F5231C700133C7
:400D00001C700A22A3F209331A7001331C7002331C70122205331A70132201331A7004331C701422A3F68C231A700097022048F66B514FF400420C23FFF7C4FE2B7806EBB8
:400D4000830313F8022C0B4B1A702B78013B36F82320094B1A802878FFF740FF03B0F0BD1081FF1FB881FF1F96580040075B0040935800400E4E00400C4E004070B500F015
:400D8000E7F906462A4B1B782A4B1A7842F001021A701A7842F010021A7010331A7842F001021A701A7842F010021A70224D2B7843F002032B70214C237843F0020323702D
:400DC0001F4A137843F003031370032000F0E0F92B7803F0FD032B70237803F0FD032370184A137843F0060313707A22164B1A70164A137843F0010313701032137843F02D
:400E0000010313700F3A137843F0010313701032137843F0010313704FF000530C4A1360A2F5C0721360304600F096F970BD00BF1081FF1FAA430040F8460040F9460040C5
:400E4000915800407758004082580040A143004080E200E008B5084B9B794BB9064BDB7913F0FF0F01D1FFF727FF0122024B9A71FFF784FF08BD00BFB881FF1F024A137848
:400E800043F0010313707047004E0040094B1B7913F0FF0F03D0074B5B79DBB203E0064B1B7803F00103012B01D00028EED01846704700BFB881FF1F014E00400E4B1B786D
:400EC00003F00303012B03D80C4B188880B209E00A4A12780A49087842EA0020032B01D1084B1B78084B1B7913F0FF0F02D00022054B5A7100B27047144E0040104E00404D
:400F0000114E0040124E0040B881FF1F704700BF014B1870704700BF72640040024B187800F00100704700BF01510040014B188880B2704780400040034B1A7800F0F800D2
:400F400010431870704700BF82400040024B187800F00700704700BF8240004070B505460E46FFF7F3FF0446FFF7E0FF854256D02B4B1B7803F0010294B900B185B938B9EE
:400F8000284B1D80284A137803F0BF03137070BD254A137843F040031370224B1D8070BD22B3002321490B7001240F310C7004310B700C390B7803F07F030B701A4B1B7877
:400FC00013F0080F00D08DB9194B18800721013B1970164B1B7813F0010FFAD110490B7803F0FE030B700021104B19700C4B1B7813F0010F0DD00E4B1D800EB1032200E022
:4010000001220A4B1A70094B1B7813F0010FFAD170BD044B1D8002490B7813430B7070BDA243004080400040824000400140004002400040014B188880B270470041004084
:40104000034B1A7800F0F80010431870704700BF02410040024B187800F00700704700BF0241004070B505460E46FFF7F3FF0446FFF7E0FF854256D02B4B1B7803F0010250
:4010800094B900B185B938B9284B1D80284A137803F0BF03137070BD254A137843F040031370224B1D8070BD22B3002321490B70012413310C7004390B7008390B7803F036
:4010C0007F030B701A4B1B7813F0080F00D08DB9194B18800721013B1970164B1B7813F0010FFAD110490B7803F0FE030B700021104B19700C4B1B7813F0010F0DD00E4B8D
:401100001D800EB1032200E001220A4B1A70094B1B7813F0010FFAD170BD044B1D8002490B7813430B7070BDA1430040004100400241004001400040024000400000000077
:401140000230800803D000BF01380046FCD17047EFF3108072B6704780F31088704700BF01BE704710B5044605E0084B1868FFF7E7FFA4F50044B4F5004FF6D8034B586884
:4011800000FB04F0FFF7DCFF10BD00BF1481FF1F08B5034B1B7A03FB00F0FFF7D1FF08BD1481FF1F70B504460E46074B1D681F2802D90020FFF7D4FF04F01F04103455F817
:4011C000240045F8246070BD08ED00E038B504460D46072902D90020FFF7C2FF1F2C02D90020FFF7BDFF04F01F0000F1604000F564406D01EDB2057038BD00BF08B5FFF77E
:40120000A7FF0A4A137843F0200313700232137843F010031370013A137843F010031370FFF79AFF00F068F808BD00BF99650040014B1878704700BF6B650040014B18785A
:40124000704700BF6A650040034B1B7813F0040FFAD0024B187070476B6500404965004008B501E00A4B1B780A4B1B7813F0200FF8D1FFF76DFF084B1A7842F001021A702F
:401280001A7802F0FE021A70FFF766FF08BD00BF596500406A6500409965004008B50F22064B1A70FFF7DCFFFFF7C2FFFFF7C6FF0023034A1370013A137008BD8965004046
:4012C0008B65004008B5054B1B7823B9FFF7E6FF0122024B1A70FFF791FF08BDC081FF1F044A137803F0DF03400100F0200018431070704750510040054A137843F0080339
:4013000013701032137843F008031370704700BFA243004010B5002404E02046FFF706FA0134E4B2012CF8D9FF22014B1A7010BD2481FF1F10B50446FFF7ECFF2046FFF73C
:40134000E7F9014B1C7010BD2481FF1F08B50A280FD00C2802D0082806D102E04FF4805209E04FF4807206E00020FFF7F9FE002201E04FF480620021094B198042F2107355
:4013800003FB02F303F6C413064A82FB0302DB17C3EBE223044A1360044B198008BD00BFD481FF1FAD8BDB68D881FF1FD681FF1F10B5FFF7CDFE04461E4A137843F00203F1
:4013C00013701032137843F002031370193A137843F0040313701032137843F00403137002F5AA521932137843F0030313700422114B1A70013B1A7802F0BF021A701A788F
:4014000042F003021A700822053B1A700222A3F59753123B1A70094A137843F0080313700A20FFF7B5FE0122054B1A602046FFF793FE10BDAB4300400E5900402F5B0040C2
:4014400080E200E010B504460A280DD00C2802D0082804D101E0C42207E0442205E00020FFF77EFEC42200E08422034B1A702046FFF76CFF10BD00BF0A59004008B510204F
:4014800000F050F800200721FFF7A0FE00200749FFF788FE064A137843F0060313700C20FFF7D0FF0022034B1A8008BD2115000009590040DC81FF1F08B5054B1B7823B903
:4014C000FFF7DCFF0122024B1A70FFF771FF08BDC181FF1F024A137843F00103137070470859004010B5074B1B7813F0010401D10028F8D024B10120FFF74AFE014B1B7826
:40150000204610BD09590040034B1B88034A1088181A00B2704700BFA25B0040D681FF1F704700BF034B1A7800F0F80010431870704700BF8A400040014B1868704700BF19
:401540008881FF1F0E4B70B51E460E4C0025E41AA410A54204D056F8253098470135F8E710F08EFC084B094C1E46E41AA4100025A54204D056F8253098470135F8E770BDF3
:401580008C1E01008C1E01008C1E0100941E010010B5431E0A44914204D011F8014B03F8014FF8E710BD03460244934202D003F8011BFAE7704700000EB400B54FF40271FE
:4015C0009CB0ADF814106FF00041049107914FF6FF711DABADF81610084953F8042B02900690086802A9019300F064F8029B00221A701CB05DF804EB03B070478881FF1FE9
:401600002DE9F0478E688246B3420C469046994640D38A8912F4906F3AD02568096902236F1A656905EB450595FBF3F57B1C4B449D4238BF1D4653050FD5294600F030FB1C
:40164000064698B121693A46FFF7A2FFA38923F4906343F08003A38113E02A4600F076FB064670B95046216900F0D6FA0C23CAF80030A3894FF0FF3043F04003A381BDE811
:40168000F08726613E4426604E466561ED1BA560B14500D24E4632462068414600F0A0FAA36800209B1BA36023681E442660BDE8F08700002DE9F0439DB003938B89064651
:4016C0001C060D4690460CD50B6953B9402100F0E7FA2860286110B90C233360CCE040236B610023099320238DF8293030238DF82A3043461C4613F8012B1AB9B4EB0809DE
:401700000FD002E0252AF5D1F8E73046294642464B46FFF775FF013000F0A980099B4B4409932378002B00F0A28000234FF0FF3204930793059206938DF853301A9304F1FD
:4017400001084446DFF8489121784846052200F039FA08F10108049B30B1C9EB00000122824013430493ECE7D80644BF20228DF85320190744BF2B228DF8532022782A2A69
:4017800002D0079923460EE0039A0134111D12680391002ABBBF524243F0020307920792B8BF04930AE01C4622780133303A092A03D80A2000FB0121F5E7079123782E2B61
:4017C0001AD163782A2B0AD1039B02341A1D1B680392002BB8BF4FF0FF3305930CE0611C00220C4623780131303B092B03D80A2000FB0232F5E70592DFF898802178404627
:40180000032200F0DFF938B1049AC8EB00004023834013430493013421781A48062204F101088DF8281000F0CDF988B1164B33B9039B073323F007030833039313E003ABB8
:401840000093304604A92A46104BAFF3008007E003AB0093304604A92A460C4B00F092F8421C074603D0099B3B44099341E7AB895B0601D4099801E04FF0FF301DB0BDE808
:40188000F08300BF541E010000000000011600004A1E0100501E01002DE9F84391461F468A680B6906469342B8BF1346C9F8003091F843200C46DDF8208012B10133C9F854
:4018C00000302368990642BFD9F800300233C9F80030256815F006051CD094F843302268003318BF012392061FD5E118302081F843005A1C94F845102244023382F84310D6
:4019000013E03046394604F119020123C047013007D00135E368D9F800209B1A9D42F0DBDBE74FF0FF30BDE8F8833046394604F14302C0470130F4D02268D9F80050E3683A
:4019400002F00602042A08BF5D1B2269A3680CBF25EAE57500259342C4BF9B1AED184FF00009A9450ADA3046394604F11A020123C0470130D5D009F10109F2E70020BDE83C
:40198000F88300002DE9FF410C461746227E98466E2A06460A9B01F1430100F0B08012D8632A23D00AD8002A00F0BD80582A40F0CC8084F84520DFF804E257E0642A1ED058
:4019C000692A1CD0C1E0732A00F0B18009D86F2A2ED0702A40F0B980226842F0200222603FE0752A24D0782A3BD0AEE01A6804F14205111D1960136884F84230A9E0206862
:401A00001A6810F0800F02D0101D186008E010F0400F02F10400186002D0B2F9003000E01368002B3EDA2D225B4284F8432039E020681A6810F0800F02D0101D186007E052
:401A400010F0400F02F10400186001D0138800E01368227EDFF864E16F2A0CBF08220A221CE07822DFF858E184F845202268186812F0800F00F104051D6003D1550601D5CD
:401A8000038800E00368D00744BF42F0200222601BB9226822F0200222601022002084F8430002E0DFF814E10A226568002DA8BF2068A560A4BF20F00400206003B965B1EA
:401AC0000D46B3FBF2F002FB10331EF8033005F8013D03460028F4D100E00D46082A0BD12368DA0708D5236962689A42DEBF302305F8013C05F1FF35491B21612EE0256878
:401B00001A6815F0800F606903D0151D1D60136808E015F0400F02F104051D60136801D0188000E01860002323610D4616E01A68111D1960156800212846626800F042F8BF
:401B400008B1401B6060636804E004F1420584F8422001232361002384F84330CDF800803046214603AA3B46FFF796FE013002D14FF0FF301FE0304639462A462369C047CB
:401B80000130F5D023689B0705D4E068039B9842B8BF18460FE00025E368039A9B1A9D42F3DA3046394604F119020123C0470130DED00135F0E704B0BDE8F0815B1E0100D7
:401BC0006C1E010010B5C9B202449042034605D01C7801308C42F8D1184610BD002010BD814210B501EB020301D3421E0BE09842FBD28118D21AD34204D013F8014D01F871
:401C0000014DF8E710BD994204D011F8014B02F8014FF8E710BD000030B500293CD051F8042C0B1F1D49002AB8BF9B180A680C4612B95A600B6030BD93420DD219685818F3
:401C4000904201BF5A5852181A60426823605A6030BD994203D80A4651680029F9D1146815199D420AD11B682344D0188842136012D10868034413604B680CE002D90C238D
:401C8000036030BD1C681819884201BF08684968001918605960536030BD00BFC881FF1F70B5CC1C24F0030408340C2C38BF0C24002C064603DA0C233360002070BD8C426F
:401CC000F9D3204A136810461946A1B10A68121B0ED40B2A03D90A608B188C501FE08B420BBF5A684A6802605A6018BF0B4616E00B464968E9E7144D2B681BB9304600F06D
:401D00004BF828603046214600F046F8421C0346D1D0C51C25F0030585420AD11C6003F10B001A1D20F00700821A0AD05142995070BD3046E91A00F02FF80130BBD02B4640
:401D4000ECE770BDC881FF1FC481FF1FF8B5074615460E4621B91146BDE8F840FFF7A0BF1AB9FFF759FF2846F8BD00F025F8A8420ED238462946FFF793FF044650B131463B
:401D80002A46FFF705FC38463146FFF745FF01E03046F8BD2046F8BD38B5064C0023054608462360FEF750FB431C02D1236803B12B6038BDE081FF1F51F8040C0028BEBF3A
:401DC000091851F8043CC01804387047000000000000000000000000000000000000000000000000000000000000000000000000000000000000000000000000000000006E
:401E000000000000000000000000000000000000000000000000000000000000000000000000000000000000000000000000000000000000000000000000000000000000A2
:401E40000000000000000000000000000000000000000000000000000000000000000000000000000000000000000000000000000000000000000000000000000000000062
:401E80000000000000000000000000000000000000000000000000000000000000000000000000000000000000000000000000000000000000000000000000000000000022
:401EC00000000000000000000000000000000000000102030405060708090A0B0C0D0E0F101112131415161718191A1B1C1D1E1F202122232425262728292A2B2C2D2E2F7A
:401F0000303132333435363738393A3B3C3D3E3F404142434445464748494A4B4C4D4E4F505152535455565758595A5B5C5D5E5F606162636465666768696A6B6C6D6E6FC1
:401F4000707172737475767778797A7B7C7D7E7F808182838485868788898A8B8C8D8E8F909192939495969798999A9B9C9D9E9FA0A1A2A3A4A5A6A7A8A9AAABACADAEAF81
:401F8000B0B1B2B3B4B5B6B7B8B9BABBBCBDBEBFC0C1C2C3C4C5C6C7C8C9CACBCCCDCECFD0D1D2D3D4D5D6D7D8D9DADBDCDDDEDFE0E1E2E3E4E5E6E7E8E9EAEBECEDEEEF41
:401FC000F0F1F2F3F4F5F6F7F8F9FAFBFCFDFEFF00020406080A0C0E10121416181A1C1E20222426282A2C2E30323436383A3C3E40424446484A4C4E50525456585A5C5E99
:4020000060626466686A6C6E70727476787A7C7E80828486888A8C8E90929496989A9C9EA0A2A4A6A8AAACAEB0B2B4B6B8BABCBEC0C2C4C6C8CACCCED0D2D4D6D8DADCDEE0
:40204000E0E2E4E6E8EAECEEF0F2F4F6F8FAFCFE00020406080A0C0E10121416181A1C1E20222426282A2C2E30323436383A3C3E40424446484A4C4E50525456585A5C5EA0
:4020800060626466686A6C6E70727476787A7C7E80828486888A8C8E90929496989A9C9EA0A2A4A6A8AAACAEB0B2B4B6B8BABCBEC0C2C4C6C8CACCCED0D2D4D6D8DADCDE60
:4020C000E0E2E4E6E8EAECEEF0F2F4F6F8FAFCFE000306090C0F1215181B1E2124272A2D303336393C3F4245484B4E5154575A5D606366696C6F7275787B7E8184878A8DB8
:40210000909396999C9FA2A5A8ABAEB1B4B7BABDC0C3C6C9CCCFD2D5D8DBDEE1E4E7EAEDF0F3F6F9FCFF0205080B0E1114171A1D202326292C2F3235383B3E4144474A4DFF
:40214000505356595C5F6265686B6E7174777A7D808386898C8F9295989B9EA1A4A7AAADB0B3B6B9BCBFC2C5C8CBCED1D4D7DADDE0E3E6E9ECEFF2F5F8FBFE0104070A0DBF
:40218000101316191C1F2225282B2E3134373A3D404346494C4F5255585B5E6164676A6D707376797C7F8285888B8E9194979A9DA0A3A6A9ACAFB2B5B8BBBEC1C4C7CACD7F
:4021C000D0D3D6D9DCDFE2E5E8EBEEF1F4F7FAFD0004080C1014181C2024282C3034383C4044484C5054585C6064686C7074787C8084888C9094989CA0A4A8ACB0B4B8BCD7
:40220000C0C4C8CCD0D4D8DCE0E4E8ECF0F4F8FC0004080C1014181C2024282C3034383C4044484C5054585C6064686C7074787C8084888C9094989CA0A4A8ACB0B4B8BC1E
:40224000C0C4C8CCD0D4D8DCE0E4E8ECF0F4F8FC0004080C1014181C2024282C3034383C4044484C5054585C6064686C7074787C8084888C9094989CA0A4A8ACB0B4B8BCDE
:40228000C0C4C8CCD0D4D8DCE0E4E8ECF0F4F8FC0004080C1014181C2024282C3034383C4044484C5054585C6064686C7074787C8084888C9094989CA0A4A8ACB0B4B8BC9E
:4022C000C0C4C8CCD0D4D8DCE0E4E8ECF0F4F8FC00050A0F14191E23282D32373C41464B50555A5F64696E73787D82878C91969BA0A5AAAFB4B9BEC3C8CDD2D7DCE1E6EBF6
:40230000F0F5FAFF04090E13181D22272C31363B40454A4F54595E63686D72777C81868B90959A9FA4A9AEB3B8BDC2C7CCD1D6DBE0E5EAEFF4F9FE03080D12171C21262B3D
:4023400030353A3F44494E53585D62676C71767B80858A8F94999EA3A8ADB2B7BCC1C6CBD0D5DADFE4E9EEF3F8FD02070C11161B20252A2F34393E43484D52575C61666BFD
:4023800070757A7F84898E93989DA2A7ACB1B6BBC0C5CACFD4D9DEE3E8EDF2F7FC01060B10151A1F24292E33383D42474C51565B60656A6F74797E83888D92979CA1A6ABBD
:4023C000B0B5BABFC4C9CED3D8DDE2E7ECF1F6FB00060C12181E242A30363C42484E545A60666C72787E848A90969CA2A8AEB4BAC0C6CCD2D8DEE4EAF0F6FC02080E141A15
:4024000020262C32383E444A50565C62686E747A80868C92989EA4AAB0B6BCC2C8CED4DAE0E6ECF2F8FE040A10161C22282E343A40464C52585E646A70767C82888E949A5C
:40244000A0A6ACB2B8BEC4CAD0D6DCE2E8EEF4FA00060C12181E242A30363C42484E545A60666C72787E848A90969CA2A8AEB4BAC0C6CCD2D8DEE4EAF0F6FC02080E141A1C
:4024800020262C32383E444A50565C62686E747A80868C92989EA4AAB0B6BCC2C8CED4DAE0E6ECF2F8FE040A10161C22282E343A40464C52585E646A70767C82888E949ADC
:4024C000A0A6ACB2B8BEC4CAD0D6DCE2E8EEF4FA00070E151C232A31383F464D545B626970777E858C939AA1A8AFB6BDC4CBD2D9E0E7EEF5FC030A11181F262D343B424934
:4025000050575E656C737A81888F969DA4ABB2B9C0C7CED5DCE3EAF1F8FF060D141B222930373E454C535A61686F767D848B9299A0A7AEB5BCC3CAD1D8DFE6EDF4FB02097B
:4025400010171E252C333A41484F565D646B727980878E959CA3AAB1B8BFC6CDD4DBE2E9F0F7FE050C131A21282F363D444B525960676E757C838A91989FA6ADB4BBC2C93B
:40258000D0D7DEE5ECF3FA01080F161D242B323940474E555C636A71787F868D949BA2A9B0B7BEC5CCD3DAE1E8EFF6FD040B121920272E353C434A51585F666D747B8289FB
:4025C00090979EA5ACB3BAC1C8CFD6DDE4EBF2F90008101820283038404850586068707880889098A0A8B0B8C0C8D0D8E0E8F0F80008101820283038404850586068707853
:4026000080889098A0A8B0B8C0C8D0D8E0E8F0F80008101820283038404850586068707880889098A0A8B0B8C0C8D0D8E0E8F0F8000810182028303840485058606870789A
:4026400080889098A0A8B0B8C0C8D0D8E0E8F0F80008101820283038404850586068707880889098A0A8B0B8C0C8D0D8E0E8F0F8000810182028303840485058606870785A
:4026800080889098A0A8B0B8C0C8D0D8E0E8F0F80008101820283038404850586068707880889098A0A8B0B8C0C8D0D8E0E8F0F8000810182028303840485058606870781A
:4026C00080889098A0A8B0B8C0C8D0D8E0E8F0F80009121B242D363F48515A636C757E879099A2ABB4BDC6CFD8E1EAF3FC050E172029323B444D565F68717A838C959EA772
:40270000B0B9C2CBD4DDE6EFF8010A131C252E374049525B646D767F88919AA3ACB5BEC7D0D9E2EBF4FD060F18212A333C454E576069727B848D969FA8B1BAC3CCD5DEE7B9
:40274000F0F9020B141D262F38414A535C656E778089929BA4ADB6BFC8D1DAE3ECF5FE071019222B343D464F58616A737C858E97A0A9B2BBC4CDD6DFE8F1FA030C151E2779
:402780003039424B545D666F78818A939CA5AEB7C0C9D2DBE4EDF6FF08111A232C353E475059626B747D868F98A1AAB3BCC5CED7E0E9F2FB040D161F28313A434C555E6739
:4027C0007079828B949DA6AFB8C1CAD3DCE5EEF7000A141E28323C46505A646E78828C96A0AAB4BEC8D2DCE6F0FA040E18222C36404A545E68727C86909AA4AEB8C2CCD691
:40280000E0EAF4FE08121C26303A444E58626C76808A949EA8B2BCC6D0DAE4EEF8020C16202A343E48525C66707A848E98A2ACB6C0CAD4DEE8F2FC06101A242E38424C56D8
:40284000606A747E88929CA6B0BAC4CED8E2ECF6000A141E28323C46505A646E78828C96A0AAB4BEC8D2DCE6F0FA040E18222C36404A545E68727C86909AA4AEB8C2CCD698
:40288000E0EAF4FE08121C26303A444E58626C76808A949EA8B2BCC6D0DAE4EEF8020C16202A343E48525C66707A848E98A2ACB6C0CAD4DEE8F2FC06101A242E38424C5658
:4028C000606A747E88929CA6B0BAC4CED8E2ECF6000B16212C37424D58636E79848F9AA5B0BBC6D1DCE7F2FD08131E29343F4A55606B76818C97A2ADB8C3CED9E4EFFA05B0
:40290000101B26313C47525D68737E89949FAAB5C0CBD6E1ECF7020D18232E39444F5A65707B86919CA7B2BDC8D3DEE9F4FF0A15202B36414C57626D78838E99A4AFBAC5F7
:40294000D0DBE6F1FC07121D28333E49545F6A75808B96A1ACB7C2CDD8E3EEF9040F1A25303B46515C67727D88939EA9B4BFCAD5E0EBF6010C17222D38434E59646F7A85B7
:40298000909BA6B1BCC7D2DDE8F3FE09141F2A35404B56616C77828D98A3AEB9C4CFDAE5F0FB06111C27323D48535E69747F8A95A0ABB6C1CCD7E2EDF8030E19242F3A4577
:4029C000505B66717C87929DA8B3BEC9D4DFEAF5000C1824303C4854606C7884909CA8B4C0CCD8E4F0FC0814202C3844505C6874808C98A4B0BCC8D4E0ECF804101C2834CF
:402A0000404C5864707C8894A0ACB8C4D0DCE8F4000C1824303C4854606C7884909CA8B4C0CCD8E4F0FC0814202C3844505C6874808C98A4B0BCC8D4E0ECF804101C283416
:402A4000404C5864707C8894A0ACB8C4D0DCE8F4000C1824303C4854606C7884909CA8B4C0CCD8E4F0FC0814202C3844505C6874808C98A4B0BCC8D4E0ECF804101C2834D6
:402A8000404C5864707C8894A0ACB8C4D0DCE8F4000C1824303C4854606C7884909CA8B4C0CCD8E4F0FC0814202C3844505C6874808C98A4B0BCC8D4E0ECF804101C283496
:402AC000404C5864707C8894A0ACB8C4D0DCE8F4000D1A2734414E5B6875828F9CA9B6C3D0DDEAF704111E2B3845525F6C798693A0ADBAC7D4E1EEFB0815222F3C495663EE
:402B0000707D8A97A4B1BECBD8E5F2FF0C192633404D5A6774818E9BA8B5C2CFDCE9F603101D2A3744515E6B7885929FACB9C6D3E0EDFA0714212E3B4855626F7C8996A335
:402B4000B0BDCAD7E4F1FE0B1825323F4C596673808D9AA7B4C1CEDBE8F5020F1C293643505D6A7784919EABB8C5D2DFECF90613202D3A4754616E7B8895A2AFBCC9D6E3F5
:402B8000F0FD0A1724313E4B5865727F8C99A6B3C0CDDAE7F4010E1B2835424F5C697683909DAAB7C4D1DEEBF805121F2C394653606D7A8794A1AEBBC8D5E2EFFC091623B5
:402BC000303D4A5764717E8B98A5B2BFCCD9E6F3000E1C2A38465462707E8C9AA8B6C4D2E0EEFC0A18263442505E6C7A8896A4B2C0CEDCEAF8061422303E4C5A687684920D
:402C0000A0AEBCCAD8E6F402101E2C3A48566472808E9CAAB8C6D4E2F0FE0C1A28364452606E7C8A98A6B4C2D0DEECFA08162432404E5C6A788694A2B0BECCDAE8F6041254
:402C4000202E3C4A58667482909EACBAC8D6E4F2000E1C2A38465462707E8C9AA8B6C4D2E0EEFC0A18263442505E6C7A8896A4B2C0CEDCEAF8061422303E4C5A6876849214
:402C8000A0AEBCCAD8E6F402101E2C3A48566472808E9CAAB8C6D4E2F0FE0C1A28364452606E7C8A98A6B4C2D0DEECFA08162432404E5C6A788694A2B0BECCDAE8F60412D4
:402CC000202E3C4A58667482909EACBAC8D6E4F2000F1E2D3C4B5A69788796A5B4C3D2E1F0FF0E1D2C3B4A5968778695A4B3C2D1E0EFFE0D1C2B3A495867768594A3B2C12C
:402D0000D0DFEEFD0C1B2A39485766758493A2B1C0CFDEEDFC0B1A2938475665748392A1B0BFCEDDECFB0A192837465564738291A0AFBECDDCEBFA09182736455463728173
:402D4000909FAEBDCCDBEAF90817263544536271808F9EADBCCBDAE9F807162534435261707F8E9DACBBCAD9E8F7061524334251606F7E8D9CABBAC9D8E7F6051423324133
:402D8000505F6E7D8C9BAAB9C8D7E6F504132231404F5E6D7C8B9AA9B8C7D6E5F4031221303F4E5D6C7B8A99A8B7C6D5E4F30211202F3E4D5C6B7A8998A7B6C5D4E3F201F3
:402DC000101F2E3D4C5B6A798897A6B5C4D3E2F100102030405060708090A0B0C0D0E0F000102030405060708090A0B0C0D0E0F000102030405060708090A0B0C0D0E0F04B
:402E000000102030405060708090A0B0C0D0E0F000102030405060708090A0B0C0D0E0F000102030405060708090A0B0C0D0E0F000102030405060708090A0B0C0D0E0F092
:402E400000102030405060708090A0B0C0D0E0F000102030405060708090A0B0C0D0E0F000102030405060708090A0B0C0D0E0F000102030405060708090A0B0C0D0E0F052
:402E800000102030405060708090A0B0C0D0E0F000102030405060708090A0B0C0D0E0F000102030405060708090A0B0C0D0E0F000102030405060708090A0B0C0D0E0F012
:402EC00000102030405060708090A0B0C0D0E0F000112233445566778899AABBCCDDEEFF102132435465768798A9BACBDCEDFE0F2031425364758697A8B9CADBECFD0E1F6A
:402F000030415263748596A7B8C9DAEBFC0D1E2F405162738495A6B7C8D9EAFB0C1D2E3F5061728394A5B6C7D8E9FA0B1C2D3E4F60718293A4B5C6D7E8F90A1B2C3D4E5FB1
:402F4000708192A3B4C5D6E7F8091A2B3C4D5E6F8091A2B3C4D5E6F708192A3B4C5D6E7F90A1B2C3D4E5F60718293A4B5C6D7E8FA0B1C2D3E4F5061728394A5B6C7D8E9F71
:402F8000B0C1D2E3F405162738495A6B7C8D9EAFC0D1E2F30415263748596A7B8C9DAEBFD0E1F2031425364758697A8B9CADBECFE0F102132435465768798A9BACBDCEDF31
:402FC000F00112233445566778899AABBCCDDEEF00122436485A6C7E90A2B4C6D8EAFC0E20324456687A8C9EB0C2D4E6F80A1C2E40526476889AACBED0E2F406182A3C4E89
:4030000060728496A8BACCDEF0021426384A5C6E8092A4B6C8DAECFE10223446586A7C8EA0B2C4D6E8FA0C1E30425466788A9CAEC0D2E4F6081A2C3E5062748698AABCCED0
:40304000E0F20416283A4C5E708294A6B8CADCEE00122436485A6C7E90A2B4C6D8EAFC0E20324456687A8C9EB0C2D4E6F80A1C2E40526476889AACBED0E2F406182A3C4E90
:4030800060728496A8BACCDEF0021426384A5C6E8092A4B6C8DAECFE10223446586A7C8EA0B2C4D6E8FA0C1E30425466788A9CAEC0D2E4F6081A2C3E5062748698AABCCE50
:4030C000E0F20416283A4C5E708294A6B8CADCEE001326394C5F728598ABBED1E4F70A1D304356697C8FA2B5C8DBEE0114273A4D60738699ACBFD2E5F80B1E3144576A7DA8
:4031000090A3B6C9DCEF0215283B4E6174879AADC0D3E6F90C1F3245586B7E91A4B7CADDF00316293C4F6275889BAEC1D4E7FA0D203346596C7F92A5B8CBDEF104172A3DEF
:40314000506376899CAFC2D5E8FB0E2134475A6D8093A6B9CCDFF205182B3E5164778A9DB0C3D6E9FC0F2235485B6E8194A7BACDE0F306192C3F5265788B9EB1C4D7EAFDAF
:40318000102336495C6F8295A8BBCEE1F4071A2D405366798C9FB2C5D8EBFE1124374A5D708396A9BCCFE2F5081B2E4154677A8DA0B3C6D9ECFF1225384B5E718497AABD6F
:4031C000D0E3F6091C2F4255687B8EA1B4C7DAED0014283C5064788CA0B4C8DCF004182C4054687C90A4B8CCE0F4081C3044586C8094A8BCD0E4F80C2034485C708498ACC7
:40320000C0D4E8FC1024384C6074889CB0C4D8EC0014283C5064788CA0B4C8DCF004182C4054687C90A4B8CCE0F4081C3044586C8094A8BCD0E4F80C2034485C708498AC0E
:40324000C0D4E8FC1024384C6074889CB0C4D8EC0014283C5064788CA0B4C8DCF004182C4054687C90A4B8CCE0F4081C3044586C8094A8BCD0E4F80C2034485C708498ACCE
:40328000C0D4E8FC1024384C6074889CB0C4D8EC0014283C5064788CA0B4C8DCF004182C4054687C90A4B8CCE0F4081C3044586C8094A8BCD0E4F80C2034485C708498AC8E
:4032C000C0D4E8FC1024384C6074889CB0C4D8EC00152A3F54697E93A8BDD2E7FC11263B50657A8FA4B9CEE3F80D22374C61768BA0B5CADFF4091E33485D72879CB1C6DBE6
:40330000F0051A2F44596E8398ADC2D7EC01162B40556A7F94A9BED3E8FD12273C51667B90A5BACFE4F90E23384D62778CA1B6CBE0F50A1F34495E73889DB2C7DCF1061B2D
:4033400030455A6F8499AEC3D8ED02172C41566B8095AABFD4E9FE13283D52677C91A6BBD0E5FA0F24394E63788DA2B7CCE1F60B20354A5F74899EB3C8DDF2071C31465BED
:4033800070859AAFC4D9EE03182D42576C8196ABC0D5EAFF14293E53687D92A7BCD1E6FB10253A4F64798EA3B8CDE2F70C21364B60758A9FB4C9DEF3081D32475C71869BAD
:4033C000B0C5DAEF04192E43586D8297ACC1D6EB00162C42586E849AB0C6DCF2081E344A60768CA2B8CEE4FA10263C52687E94AAC0D6EC02182E445A70869CB2C8DEF40A05
:4034000020364C62788EA4BAD0E6FC12283E546A8096ACC2D8EE041A30465C72889EB4CAE0F60C22384E647A90A6BCD2E8FE142A40566C8298AEC4DAF0061C32485E748A4C
:40344000A0B6CCE2F80E243A50667C92A8BED4EA00162C42586E849AB0C6DCF2081E344A60768CA2B8CEE4FA10263C52687E94AAC0D6EC02182E445A70869CB2C8DEF40A0C
:4034800020364C62788EA4BAD0E6FC12283E546A8096ACC2D8EE041A30465C72889EB4CAE0F60C22384E647A90A6BCD2E8FE142A40566C8298AEC4DAF0061C32485E748ACC
:4034C000A0B6CCE2F80E243A50667C92A8BED4EA00172E455C738AA1B8CFE6FD142B425970879EB5CCE3FA11283F566D849BB2C9E0F70E253C536A8198AFC6DDF40B223924
:4035000050677E95ACC3DAF1081F364D647B92A9C0D7EE051C334A61788FA6BDD4EB021930475E758CA3BAD1E8FF162D445B7289A0B7CEE5FC132A41586F869DB4CBE2F96B
:4035400010273E556C839AB1C8DFF60D243B52698097AEC5DCF30A21384F667D94ABC2D9F0071E354C637A91A8BFD6ED041B324960778EA5BCD3EA01182F465D748BA2B92B
:40358000D0E7FE152C435A71889FB6CDE4FB122940576E859CB3CAE1F80F263D546B8299B0C7DEF50C233A51687F96ADC4DBF20920374E657C93AAC1D8EF061D344B6279EB
:4035C00090A7BED5EC031A31485F768DA4BBD2E900183048607890A8C0D8F008203850688098B0C8E0F8102840587088A0B8D0E800183048607890A8C0D8F0082038506843
:403600008098B0C8E0F8102840587088A0B8D0E800183048607890A8C0D8F008203850688098B0C8E0F8102840587088A0B8D0E800183048607890A8C0D8F008203850688A
:403640008098B0C8E0F8102840587088A0B8D0E800183048607890A8C0D8F008203850688098B0C8E0F8102840587088A0B8D0E800183048607890A8C0D8F008203850684A
:403680008098B0C8E0F8102840587088A0B8D0E800183048607890A8C0D8F008203850688098B0C8E0F8102840587088A0B8D0E800183048607890A8C0D8F008203850680A
:4036C0008098B0C8E0F8102840587088A0B8D0E80019324B647D96AFC8E1FA132C455E7790A9C2DBF40D263F58718AA3BCD5EE072039526B849DB6CFE8011A334C657E9762
:40370000B0C9E2FB142D465F7891AAC3DCF50E274059728BA4BDD6EF08213A536C859EB7D0E9021B344D667F98B1CAE3FC152E47607992ABC4DDF60F28415A738CA5BED7A9
:40374000F009223B546D869FB8D1EA031C354E678099B2CBE4FD162F48617A93ACC5DEF71029425B748DA6BFD8F10A233C556E87A0B9D2EB041D364F68819AB3CCE5FE1769
:403780003049627B94ADC6DFF8112A435C758EA7C0D9F20B243D566F88A1BAD3EC051E375069829BB4CDE6FF18314A637C95AEC7E0F9122B445D768FA8C1DAF30C253E5729
:4037C0007089A2BBD4ED061F38516A839CB5CEE7001A344E68829CB6D0EA041E38526C86A0BAD4EE08223C56708AA4BED8F20C26405A748EA8C2DCF6102A445E7892ACC681
:40380000E0FA142E48627C96B0CAE4FE18324C66809AB4CEE8021C36506A849EB8D2EC06203A546E88A2BCD6F00A243E58728CA6C0DAF40E28425C7690AAC4DEF8122C46C8
:40384000607A94AEC8E2FC16304A647E98B2CCE6001A344E68829CB6D0EA041E38526C86A0BAD4EE08223C56708AA4BED8F20C26405A748EA8C2DCF6102A445E7892ACC688
:40388000E0FA142E48627C96B0CAE4FE18324C66809AB4CEE8021C36506A849EB8D2EC06203A546E88A2BCD6F00A243E58728CA6C0DAF40E28425C7690AAC4DEF8122C4648
:4038C000607A94AEC8E2FC16304A647E98B2CCE6001B36516C87A2BDD8F30E29445F7A95B0CBE6011C37526D88A3BED9F40F2A45607B96B1CCE7021D38536E89A4BFDAF5A0
:40390000102B46617C97B2CDE8031E39546F8AA5C0DBF6112C47627D98B3CEE9041F3A55708BA6C1DCF7122D48637E99B4CFEA05203B56718CA7C2DDF8132E49647F9AB5E7
:40394000D0EB06213C57728DA8C3DEF9142F4A65809BB6D1EC07223D58738EA9C4DFFA15304B66819CB7D2ED08233E59748FAAC5E0FB16314C67829DB8D3EE09243F5A75A7
:4039800090ABC6E1FC17324D68839EB9D4EF0A25405B7691ACC7E2FD18334E69849FBAD5F00B26415C7792ADC8E3FE19344F6A85A0BBD6F10C27425D7893AEC9E4FF1A3567
:4039C000506B86A1BCD7F20D28435E7994AFCAE5001C3854708CA8C4E0FC1834506C88A4C0DCF814304C6884A0BCD8F4102C4864809CB8D4F00C2844607C98B4D0EC0824BF
:403A0000405C7894B0CCE804203C587490ACC8E4001C3854708CA8C4E0FC1834506C88A4C0DCF814304C6884A0BCD8F4102C4864809CB8D4F00C2844607C98B4D0EC082406
:403A4000405C7894B0CCE804203C587490ACC8E4001C3854708CA8C4E0FC1834506C88A4C0DCF814304C6884A0BCD8F4102C4864809CB8D4F00C2844607C98B4D0EC0824C6
:403A8000405C7894B0CCE804203C587490ACC8E4001C3854708CA8C4E0FC1834506C88A4C0DCF814304C6884A0BCD8F4102C4864809CB8D4F00C2844607C98B4D0EC082486
:403AC000405C7894B0CCE804203C587490ACC8E4001D3A577491AECBE805223F5C7996B3D0ED0A2744617E9BB8D5F20F2C496683A0BDDAF714314E6B88A5C2DFFC193653DE
:403B0000708DAAC7E4011E3B587592AFCCE90623405D7A97B4D1EE0B2845627F9CB9D6F3102D4A6784A1BEDBF815324F6C89A6C3E0FD1A3754718EABC8E5021F3C59769325
:403B4000B0CDEA0724415E7B98B5D2EF0C294663809DBAD7F4112E4B6885A2BFDCF91633506D8AA7C4E1FE1B3855728FACC9E603203D5A7794B1CEEB0825425F7C99B6D3E5
:403B8000F00D2A4764819EBBD8F5122F4C6986A3C0DDFA1734516E8BA8C5E2FF1C39567390ADCAE704213E5B7895B2CFEC092643607D9AB7D4F10E2B4865829FBCD9F613A5
:403BC000304D6A87A4C1DEFB1835526F8CA9C6E3001E3C5A7896B4D2F00E2C4A6886A4C2E0FE1C3A587694B2D0EE0C2A486684A2C0DEFC1A38567492B0CEEC0A28466482FD
:403C0000A0BEDCFA1836547290AECCEA08264462809EBCDAF8163452708EACCAE8062442607E9CBAD8F61432506E8CAAC8E60422405E7C9AB8D6F412304E6C8AA8C6E40244
:403C4000203E5C7A98B6D4F2102E4C6A88A6C4E2001E3C5A7896B4D2F00E2C4A6886A4C2E0FE1C3A587694B2D0EE0C2A486684A2C0DEFC1A38567492B0CEEC0A2846648204
:403C8000A0BEDCFA1836547290AECCEA08264462809EBCDAF8163452708EACCAE8062442607E9CBAD8F61432506E8CAAC8E60422405E7C9AB8D6F412304E6C8AA8C6E402C4
:403CC000203E5C7A98B6D4F2102E4C6A88A6C4E2001F3E5D7C9BBAD9F81736557493B2D1F00F2E4D6C8BAAC9E80726456483A2C1E0FF1E3D5C7B9AB9D8F71635547392B11C
:403D0000D0EF0E2D4C6B8AA9C8E70625446382A1C0DFFE1D3C5B7A99B8D7F61534537291B0CFEE0D2C4B6A89A8C7E60524436281A0BFDEFD1C3B5A7998B7D6F51433527163
:403D400090AFCEED0C2B4A6988A7C6E504234261809FBEDDFC1B3A597897B6D5F4133251708FAECDEC0B2A496887A6C5E4032241607F9EBDDCFB1A39587796B5D4F3123123
:403D8000506F8EADCCEB0A29486786A5C4E30221405F7E9DBCDBFA1938577695B4D3F211304F6E8DACCBEA0928476685A4C3E201203F5E7D9CBBDAF91837567594B3D2F1E3
:403DC000102F4E6D8CABCAE90827466584A3C2E10020406080A0C0E00020406080A0C0E00020406080A0C0E00020406080A0C0E00020406080A0C0E00020406080A0C0E03B
:403E00000020406080A0C0E00020406080A0C0E00020406080A0C0E00020406080A0C0E00020406080A0C0E00020406080A0C0E00020406080A0C0E00020406080A0C0E082
:403E40000020406080A0C0E00020406080A0C0E00020406080A0C0E00020406080A0C0E00020406080A0C0E00020406080A0C0E00020406080A0C0E00020406080A0C0E042
:403E80000020406080A0C0E00020406080A0C0E00020406080A0C0E00020406080A0C0E00020406080A0C0E00020406080A0C0E00020406080A0C0E00020406080A0C0E002
:403EC0000020406080A0C0E00020406080A0C0E00021426384A5C6E708294A6B8CADCEEF1031527394B5D6F718395A7B9CBDDEFF20416283A4C5E60728496A8BACCDEE0F5A
:403F000030517293B4D5F61738597A9BBCDDFE1F406182A3C4E5062748698AABCCED0E2F507192B3D4F5163758799ABBDCFD1E3F6081A2C3E40526476889AACBEC0D2E4FA1
:403F40007091B2D3F41536577899BADBFC1D3E5F80A1C2E30425466788A9CAEB0C2D4E6F90B1D2F31435567798B9DAFB1C3D5E7FA0C1E20324456687A8C9EA0B2C4D6E8F61
:403F8000B0D1F21334557697B8D9FA1B3C5D7E9FC0E10223446586A7C8E90A2B4C6D8EAFD0F11233547596B7D8F91A3B5C7D9EBFE00122436485A6C7E8092A4B6C8DAECF21
:403FC000F01132537495B6D7F8193A5B7C9DBEDF0022446688AACCEE1032547698BADCFE20426486A8CAEC0E30527496B8DAFC1E406284A6C8EA0C2E507294B6D8FA1C3E79
:404000006082A4C6E80A2C4E7092B4D6F81A3C5E80A2C4E6082A4C6E90B2D4F6183A5C7EA0C2E406284A6C8EB0D2F416385A7C9EC0E20426486A8CAED0F21436587A9CBEC0
:40404000E0022446688AACCEF0123456789ABCDE0022446688AACCEE1032547698BADCFE20426486A8CAEC0E30527496B8DAFC1E406284A6C8EA0C2E507294B6D8FA1C3E80
:404080006082A4C6E80A2C4E7092B4D6F81A3C5E80A2C4E6082A4C6E90B2D4F6183A5C7EA0C2E406284A6C8EB0D2F416385A7C9EC0E20426486A8CAED0F21436587A9CBE40
:4040C000E0022446688AACCEF0123456789ABCDE002346698CAFD2F5183B5E81A4C7EA0D30537699BCDF0225486B8EB1D4F71A3D6083A6C9EC0F3255789BBEE104274A6D98
:4041000090B3D6F91C3F6285A8CBEE1134577A9DC0E306294C6F92B5D8FB1E416487AACDF01336597C9FC2E5082B4E7194B7DAFD20436689ACCFF215385B7EA1C4E70A2DDF
:40414000507396B9DCFF2245688BAED1F4173A5D80A3C6E90C2F527598BBDE0124476A8DB0D3F6193C5F82A5C8EB0E3154779ABDE00326496C8FB2D5F81B3E6184A7CAED9F
:40418000103356799CBFE205284B6E91B4D7FA1D406386A9CCEF1235587B9EC1E4072A4D7093B6D9FC1F426588ABCEF114375A7DA0C3E6092C4F7295B8DBFE2144678AAD5F
:4041C000D0F316395C7FA2C5E80B2E517497BADD0024486C90B4D8FC2044688CB0D4F81C406488ACD0F4183C6084A8CCF014385C80A4C8EC1034587CA0C4E80C3054789CB7
:40420000C0E4082C507498BCE004284C7094B8DC0024486C90B4D8FC2044688CB0D4F81C406488ACD0F4183C6084A8CCF014385C80A4C8EC1034587CA0C4E80C3054789CFE
:40424000C0E4082C507498BCE004284C7094B8DC0024486C90B4D8FC2044688CB0D4F81C406488ACD0F4183C6084A8CCF014385C80A4C8EC1034587CA0C4E80C3054789CBE
:40428000C0E4082C507498BCE004284C7094B8DC0024486C90B4D8FC2044688CB0D4F81C406488ACD0F4183C6084A8CCF014385C80A4C8EC1034587CA0C4E80C3054789C7E
:4042C000C0E4082C507498BCE004284C7094B8DC00254A6F94B9DE03284D7297BCE1062B50759ABFE4092E53789DC2E70C31567BA0C5EA0F34597EA3C8ED12375C81A6CBD6
:40430000F0153A5F84A9CEF3183D6287ACD1F61B40658AAFD4F91E43688DB2D7FC21466B90B5DAFF24496E93B8DD02274C7196BBE0052A4F7499BEE3082D52779CC1E60B1D
:4043400030557A9FC4E90E33587DA2C7EC11365B80A5CAEF14395E83A8CDF2173C6186ABD0F51A3F6489AED3F81D42678CB1D6FB20456A8FB4D9FE23486D92B7DC01264BDD
:404380007095BADF04294E7398BDE2072C51769BC0E50A2F54799EC3E80D32577CA1C6EB10355A7FA4C9EE13385D82A7CCF1163B6085AACFF4193E6388ADD2F71C41668B9D
:4043C000B0D5FA1F44698EB3D8FD22476C91B6DB00264C7298BEE40A30567CA2C8EE143A6086ACD2F81E446A90B6DC02284E749AC0E60C32587EA4CAF0163C6288AED4FAF5
:4044000020466C92B8DE042A50769CC2E80E345A80A6CCF2183E648AB0D6FC22486E94BAE0062C52789EC4EA10365C82A8CEF41A40668CB2D8FE244A7096BCE2082E547A3C
:40444000A0C6EC12385E84AAD0F61C42688EB4DA00264C7298BEE40A30567CA2C8EE143A6086ACD2F81E446A90B6DC02284E749AC0E60C32587EA4CAF0163C6288AED4FAFC
:4044800020466C92B8DE042A50769CC2E80E345A80A6CCF2183E648AB0D6FC22486E94BAE0062C52789EC4EA10365C82A8CEF41A40668CB2D8FE244A7096BCE2082E547ABC
:4044C000A0C6EC12385E84AAD0F61C42688EB4DA00274E759CC3EA11385F86ADD4FB22497097BEE50C335A81A8CFF61D446B92B9E0072E557CA3CAF1183F668DB4DB022914
:4045000050779EC5EC133A6188AFD6FD244B7299C0E70E355C83AAD1F81F466D94BBE20930577EA5CCF31A41688FB6DD042B5279A0C7EE153C638AB1D8FF264D749BC2E95B
:4045400010375E85ACD3FA21486F96BDE40B325980A7CEF51C436A91B8DF062D547BA2C9F0173E658CB3DA01284F769DC4EB12396087AED5FC234A7198BFE60D345B82A91B
:40458000D0F71E456C93BAE1082F567DA4CBF21940678EB5DC032A51789FC6ED143B6289B0D7FE254C739AC1E80F365D84ABD2F920476E95BCE30A31587FA6CDF41B4269DB
:4045C00090B7DE052C537AA1C8EF163D648BB2D900285078A0C8F018406890B8E008305880A8D0F820487098C0E810386088B0D800285078A0C8F018406890B8E008305833
:4046000080A8D0F820487098C0E810386088B0D800285078A0C8F018406890B8E008305880A8D0F820487098C0E810386088B0D800285078A0C8F018406890B8E00830587A
:4046400080A8D0F820487098C0E810386088B0D800285078A0C8F018406890B8E008305880A8D0F820487098C0E810386088B0D800285078A0C8F018406890B8E00830583A
:4046800080A8D0F820487098C0E810386088B0D800285078A0C8F018406890B8E008305880A8D0F820487098C0E810386088B0D800285078A0C8F018406890B8E0083058FA
:4046C00080A8D0F820487098C0E810386088B0D80029527BA4CDF61F48719AC3EC153E6790B9E20B345D86AFD8012A537CA5CEF72049729BC4ED163F6891BAE30C355E8752
:40470000B0D9022B547DA6CFF8214A739CC5EE17406992BBE40D365F88B1DA032C557EA7D0F9224B749DC6EF18416A93BCE50E376089B2DB042D567FA8D1FA234C759EC799
:40474000F019426B94BDE60F38618AB3DC052E5780A9D2FB244D769FC8F11A436C95BEE71039628BB4DD062F5881AAD3FC254E77A0C9F21B446D96BFE8113A638CB5DE0759
:40478000305982ABD4FD264F78A1CAF31C456E97C0E9123B648DB6DF08315A83ACD5FE275079A2CBF41D466F98C1EA133C658EB7E009325B84ADD6FF28517AA3CCF51E4719
:4047C0007099C2EB143D668FB8E10A335C85AED7002A547EA8D2FC26507AA4CEF8224C76A0CAF41E48729CC6F01A446E98C2EC16406A94BEE8123C6690BAE40E38628CB671
:40480000E00A345E88B2DC06305A84AED8022C5680AAD4FE28527CA6D0FA244E78A2CCF6204A749EC8F21C46709AC4EE18426C96C0EA143E6892BCE6103A648EB8E20C36B8
:40484000608AB4DE08325C86B0DA042E5882ACD6002A547EA8D2FC26507AA4CEF8224C76A0CAF41E48729CC6F01A446E98C2EC16406A94BEE8123C6690BAE40E38628CB678
:40488000E00A345E88B2DC06305A84AED8022C5680AAD4FE28527CA6D0FA244E78A2CCF6204A749EC8F21C46709AC4EE18426C96C0EA143E6892BCE6103A648EB8E20C3638
:4048C000608AB4DE08325C86B0DA042E5882ACD6002B5681ACD7022D5883AED9042F5A85B0DB06315C87B2DD08335E89B4DF0A35608BB6E10C37628DB8E30E39648FBAE590
:40490000103B6691BCE7123D6893BEE9143F6A95C0EB16416C97C2ED18436E99C4EF1A45709BC6F11C47729DC8F31E49749FCAF5204B76A1CCF7224D78A3CEF9244F7AA5D7
:40494000D0FB26517CA7D2FD28537EA9D4FF2A5580ABD6012C5782ADD8032E5984AFDA05305B86B1DC07325D88B3DE09345F8AB5E00B36618CB7E20D38638EB9E40F3A6597
:4049800090BBE6113C6792BDE8133E6994BFEA15406B96C1EC17426D98C3EE19446F9AC5F01B46719CC7F21D48739EC9F41F4A75A0CBF6214C77A2CDF8234E79A4CFFA2557
:4049C000507BA6D1FC27527DA8D3FE29547FAAD5002C5884B0DC0834608CB8E4103C6894C0EC1844709CC8F4204C78A4D0FC285480ACD804305C88B4E00C386490BCE814AF
:404A0000406C98C4F01C4874A0CCF824507CA8D4002C5884B0DC0834608CB8E4103C6894C0EC1844709CC8F4204C78A4D0FC285480ACD804305C88B4E00C386490BCE814F6
:404A4000406C98C4F01C4874A0CCF824507CA8D4002C5884B0DC0834608CB8E4103C6894C0EC1844709CC8F4204C78A4D0FC285480ACD804305C88B4E00C386490BCE814B6
:404A8000406C98C4F01C4874A0CCF824507CA8D4002C5884B0DC0834608CB8E4103C6894C0EC1844709CC8F4204C78A4D0FC285480ACD804305C88B4E00C386490BCE81476
:404AC000406C98C4F01C4874A0CCF824507CA8D4002D5A87B4E10E3B6895C2EF1C4976A3D0FD2A5784B1DE0B386592BFEC194673A0CDFA275481AEDB0835628FBCE91643CE
:404B0000709DCAF724517EABD805325F8CB9E613406D9AC7F4214E7BA8D5022F5C89B6E3103D6A97C4F11E4B78A5D2FF2C5986B3E00D3A6794C1EE1B4875A2CFFC29568315
:404B4000B0DD0A376491BEEB1845729FCCF9265380ADDA0734618EBBE815426F9CC9F623507DAAD704315E8BB8E5123F6C99C6F3204D7AA7D4012E5B88B5E20F3C6996C3D5
:404B8000F01D4A77A4D1FE2B5885B2DF0C396693C0ED1A4774A1CEFB285582AFDC09366390BDEA1744719ECBF825527FACD90633608DBAE714416E9BC8F5224F7CA9D60395
:404BC000305D8AB7E4113E6B98C5F21F4C79A6D3002E5C8AB8E61442709ECCFA285684B2E00E3C6A98C6F422507EACDA08366492C0EE1C4A78A6D402305E8CBAE8164472ED
:404C0000A0CEFC2A5886B4E2103E6C9AC8F6245280AEDC0A386694C2F01E4C7AA8D60432608EBCEA184674A2D0FE2C5A88B6E412406E9CCAF8265482B0DE0C3A6896C4F234
:404C4000204E7CAAD806346290BEEC1A4876A4D2002E5C8AB8E61442709ECCFA285684B2E00E3C6A98C6F422507EACDA08366492C0EE1C4A78A6D402305E8CBAE8164472F4
:404C8000A0CEFC2A5886B4E2103E6C9AC8F6245280AEDC0A386694C2F01E4C7AA8D60432608EBCEA184674A2D0FE2C5A88B6E412406E9CCAF8265482B0DE0C3A6896C4F2B4
:404CC000204E7CAAD806346290BEEC1A4876A4D2002F5E8DBCEB1A4978A7D605346392C1F01F4E7DACDB0A396897C6F5245382B1E00F3E6D9CCBFA295887B6E5144372A10C
:404D0000D0FF2E5D8CBBEA194877A6D504336291C0EF1E4D7CABDA09386796C5F4235281B0DF0E3D6C9BCAF9285786B5E4134271A0CFFE2D5C8BBAE9184776A5D403326153
:404D400090BFEE1D4C7BAAD908376695C4F3225180AFDE0D3C6B9AC9F8275685B4E31241709FCEFD2C5B8AB9E8174675A4D30231608FBEED1C4B7AA9D807366594C3F22113
:404D8000507FAEDD0C3B6A99C8F7265584B3E211406F9ECDFC2B5A89B8E7164574A3D201305F8EBDEC1B4A79A8D706356493C2F1204F7EADDC0B3A6998C7F6255483B2E1D3
:404DC000103F6E9DCCFB2A5988B7E6154473A2D100306090C0F0205080B0E0104070A0D000306090C0F0205080B0E0104070A0D000306090C0F0205080B0E0104070A0D02B
:404E000000306090C0F0205080B0E0104070A0D000306090C0F0205080B0E0104070A0D000306090C0F0205080B0E0104070A0D000306090C0F0205080B0E0104070A0D072
:404E400000306090C0F0205080B0E0104070A0D000306090C0F0205080B0E0104070A0D000306090C0F0205080B0E0104070A0D000306090C0F0205080B0E0104070A0D032
:404E800000306090C0F0205080B0E0104070A0D000306090C0F0205080B0E0104070A0D000306090C0F0205080B0E0104070A0D000306090C0F0205080B0E0104070A0D0F2
:404EC00000306090C0F0205080B0E0104070A0D000316293C4F5265788B9EA1B4C7DAEDF104172A3D405366798C9FA2B5C8DBEEF205182B3E4154677A8D90A3B6C9DCEFF4A
:404F0000306192C3F4255687B8E91A4B7CADDE0F4071A2D304356697C8F92A5B8CBDEE1F5081B2E3144576A7D8093A6B9CCDFE2F6091C2F3245586B7E8194A7BACDD0E3F91
:404F400070A1D203346596C7F8295A8BBCED1E4F80B1E2134475A6D708396A9BCCFD2E5F90C1F2235485B6E718497AABDC0D3E6FA0D102336495C6F728598ABBEC1D4E7F51
:404F8000B0E1124374A5D60738699ACBFC2D5E8FC0F1225384B5E6174879AADB0C3D6E9FD001326394C5F6275889BAEB1C4D7EAFE0114273A4D506376899CAFB2C5D8EBF11
:404FC000F0215283B4E5164778A9DA0B3C6D9ECF00326496C8FA2C5E90C2F426588ABCEE205284B6E81A4C7EB0E2144678AADC0E4072A4D6083A6C9ED002346698CAFC2E69
:405000006092C4F6285A8CBEF0225486B8EA1C4E80B2E416487AACDE104274A6D80A3C6EA0D20436689ACCFE306294C6F82A5C8EC0F2245688BAEC1E5082B4E6184A7CAEB0
:40504000E0124476A8DA0C3E70A2D406386A9CCE00326496C8FA2C5E90C2F426588ABCEE205284B6E81A4C7EB0E2144678AADC0E4072A4D6083A6C9ED002346698CAFC2E70
:405080006092C4F6285A8CBEF0225486B8EA1C4E80B2E416487AACDE104274A6D80A3C6EA0D20436689ACCFE306294C6F82A5C8EC0F2245688BAEC1E5082B4E6184A7CAE30
:4050C000E0124476A8DA0C3E70A2D406386A9CCE00336699CCFF326598CBFE316497CAFD306396C9FC2F6295C8FB2E6194C7FA2D6093C6F92C5F92C5F82B5E91C4F72A5D88
:4051000090C3F6295C8FC2F5285B8EC1F4275A8DC0F326598CBFF225588BBEF124578ABDF0235689BCEF225588BBEE215487BAED205386B9EC1F5285B8EB1E5184B7EA1DCF
:405140005083B6E91C4F82B5E81B4E81B4E71A4D80B3E6194C7FB2E5184B7EB1E4174A7DB0E316497CAFE215487BAEE114477AADE0134679ACDF124578ABDE114477AADD8F
:40518000104376A9DC0F4275A8DB0E4174A7DA0D4073A6D90C3F72A5D80B3E71A4D70A3D70A3D6093C6FA2D5083B6EA1D4073A6DA0D306396C9FD205386B9ED104376A9D4F
:4051C000D00336699CCF0235689BCE0134679ACD0034689CD004386CA0D4083C70A4D80C4074A8DC104478ACE014487CB0E4184C80B4E81C5084B8EC205488BCF024588CA7
:40520000C0F4285C90C4F82C6094C8FC306498CC0034689CD004386CA0D4083C70A4D80C4074A8DC104478ACE014487CB0E4184C80B4E81C5084B8EC205488BCF024588CEE
:40524000C0F4285C90C4F82C6094C8FC306498CC0034689CD004386CA0D4083C70A4D80C4074A8DC104478ACE014487CB0E4184C80B4E81C5084B8EC205488BCF024588CAE
:40528000C0F4285C90C4F82C6094C8FC306498CC0034689CD004386CA0D4083C70A4D80C4074A8DC104478ACE014487CB0E4184C80B4E81C5084B8EC205488BCF024588C6E
:4052C000C0F4285C90C4F82C6094C8FC306498CC00356A9FD4093E73A8DD12477CB1E61B5085BAEF24598EC3F82D6297CC01366BA0D50A3F74A9DE13487DB2E71C5186BBC6
:40530000F0255A8FC4F92E6398CD02376CA1D60B4075AADF14497EB3E81D5287BCF1265B90C5FA2F6499CE03386DA2D70C4176ABE0154A7FB4E91E5388BDF2275C91C6FB0D
:4053400030659ACF04396EA3D80D4277ACE1164B80B5EA1F5489BEF3285D92C7FC31669BD0053A6FA4D90E4378ADE2174C81B6EB20558ABFF4295E93C8FD32679CD1063BCD
:4053800070A5DA0F4479AEE3184D82B7EC21568BC0F52A5F94C9FE33689DD2073C71A6DB10457AAFE4194E83B8ED22578CC1F62B6095CAFF34699ED3083D72A7DC11467B8D
:4053C000B0E51A4F84B9EE23588DC2F72C6196CB00366CA2D80E447AB0E61C5288BEF42A6096CC02386EA4DA10467CB2E81E548AC0F62C6298CE043A70A6DC12487EB4EAE5
:4054000020568CC2F82E649AD0063C72A8DE144A80B6EC22588EC4FA30669CD2083E74AAE0164C82B8EE245A90C6FC32689ED40A4076ACE2184E84BAF0265C92C8FE346A2C
:40544000A0D60C4278AEE41A5086BCF2285E94CA00366CA2D80E447AB0E61C5288BEF42A6096CC02386EA4DA10467CB2E81E548AC0F62C6298CE043A70A6DC12487EB4EAEC
:4054800020568CC2F82E649AD0063C72A8DE144A80B6EC22588EC4FA30669CD2083E74AAE0164C82B8EE245A90C6FC32689ED40A4076ACE2184E84BAF0265C92C8FE346AAC
:4054C000A0D60C4278AEE41A5086BCF2285E94CA00376EA5DC134A81B8EF265D94CB023970A7DE154C83BAF1285F96CD043B72A9E0174E85BCF32A6198CF063D74ABE21904
:405500005087BEF52C639AD1083F76ADE41B5289C0F72E659CD30A4178AFE61D548BC2F930679ED50C437AB1E81F568DC4FB3269A0D70E457CB3EA21588FC6FD346BA2D94B
:4055400010477EB5EC235A91C8FF366DA4DB124980B7EE255C93CA01386FA6DD144B82B9F0275E95CC033A71A8DF164D84BBF2296097CE053C73AAE1184F86BDF42B62990B
:40558000D0073E75ACE31A5188BFF62D649BD2094077AEE51C538AC1F82F669DD40B4279B0E71E558CC3FA31689FD60D447BB2E920578EC5FC336AA1D80F467DB4EB2259CB
:4055C00090C7FE356CA3DA11487FB6ED245B92C9003870A8E0185088C0F83068A0D8104880B8F0286098D0084078B0E8205890C8003870A8E0185088C0F83068A0D8104823
:4056000080B8F0286098D0084078B0E8205890C8003870A8E0185088C0F83068A0D8104880B8F0286098D0084078B0E8205890C8003870A8E0185088C0F83068A0D810486A
:4056400080B8F0286098D0084078B0E8205890C8003870A8E0185088C0F83068A0D8104880B8F0286098D0084078B0E8205890C8003870A8E0185088C0F83068A0D810482A
:4056800080B8F0286098D0084078B0E8205890C8003870A8E0185088C0F83068A0D8104880B8F0286098D0084078B0E8205890C8003870A8E0185088C0F83068A0D81048EA
:4056C00080B8F0286098D0084078B0E8205890C8003972ABE41D568FC8013A73ACE51E5790C9023B74ADE61F5891CA033C75AEE7205992CB043D76AFE8215A93CC053E7742
:40570000B0E9225B94CD063F78B1EA235C95CE074079B2EB245D96CF08417AB3EC255E97D009427BB4ED265F98D10A437CB5EE276099D20B447DB6EF28619AD30C457EB789
:40574000F029629BD40D467FB8F12A639CD50E4780B9F22B649DD60F4881BAF32C659ED7104982BBF42D669FD8114A83BCF52E67A0D9124B84BDF62F68A1DA134C85BEF749
:405780003069A2DB144D86BFF8316AA3DC154E87C0F9326BA4DD164F88C1FA336CA5DE175089C2FB346DA6DF18518AC3FC356EA7E019528BC4FD366FA8E11A538CC5FE3709
:4057C00070A9E21B548DC6FF3871AAE31C558EC7003A74AEE8225C96D00A447EB8F22C66A0DA144E88C2FC3670AAE41E5892CC06407AB4EE28629CD6104A84BEF8326CA661
:40580000E01A548EC8023C76B0EA245E98D20C4680BAF42E68A2DC16508AC4FE3872ACE6205A94CE08427CB6F02A649ED8124C86C0FA346EA8E21C5690CA043E78B2EC26A8
:40584000609AD40E4882BCF6306AA4DE18528CC6003A74AEE8225C96D00A447EB8F22C66A0DA144E88C2FC3670AAE41E5892CC06407AB4EE28629CD6104A84BEF8326CA668
:40588000E01A548EC8023C76B0EA245E98D20C4680BAF42E68A2DC16508AC4FE3872ACE6205A94CE08427CB6F02A649ED8124C86C0FA346EA8E21C5690CA043E78B2EC2628
:4058C000609AD40E4882BCF6306AA4DE18528CC6003B76B1EC27629DD8134E89C4FF3A75B0EB26619CD7124D88C3FE3974AFEA25609BD6114C87C2FD3873AEE9245F9AD580
:40590000104B86C1FC3772ADE8235E99D40F4A85C0FB3671ACE7225D98D30E4984BFFA3570ABE6215C97D20D4883BEF9346FAAE5205B96D10C4782BDF8336EA9E41F5A95C7
:40594000D00B4681BCF7326DA8E31E5994CF0A4580BBF6316CA7E21D5893CE09447FBAF5306BA6E11C5792CD08437EB9F42F6AA5E01B5691CC07427DB8F32E69A4DF1A5587
:4059800090CB06417CB7F22D68A3DE19548FCA05407BB6F12C67A2DD18538EC9043F7AB5F02B66A1DC17528DC8033E79B4EF2A65A0DB16518CC7023D78B3EE29649FDA1547
:4059C000508BC6013C77B2ED28639ED9144F8AC5003C78B4F02C68A4E01C5894D00C4884C0FC3874B0EC2864A0DC185490CC084480BCF83470ACE824609CD814508CC8049F
:405A0000407CB8F4306CA8E4205C98D4104C88C4003C78B4F02C68A4E01C5894D00C4884C0FC3874B0EC2864A0DC185490CC084480BCF83470ACE824609CD814508CC804E6
:405A4000407CB8F4306CA8E4205C98D4104C88C4003C78B4F02C68A4E01C5894D00C4884C0FC3874B0EC2864A0DC185490CC084480BCF83470ACE824609CD814508CC804A6
:405A8000407CB8F4306CA8E4205C98D4104C88C4003C78B4F02C68A4E01C5894D00C4884C0FC3874B0EC2864A0DC185490CC084480BCF83470ACE824609CD814508CC80466
:405AC000407CB8F4306CA8E4205C98D4104C88C4003D7AB7F4316EABE825629FDC195693D00D4A87C4013E7BB8F5326FACE92663A0DD1A5794D10E4B88C5023F7CB9F633BE
:405B000070ADEA2764A1DE1B5895D20F4C89C603407DBAF73471AEEB2865A2DF1C5996D3104D8AC704417EBBF83572AFEC2966A3E01D5A97D4114E8BC805427FBCF9367305
:405B4000B0ED2A67A4E11E5B98D5124F8CC9064380BDFA3774B1EE2B68A5E21F5C99D613508DCA074481BEFB3875B2EF2C69A6E3205D9AD714518ECB084582BFFC3976B3C5
:405B8000F02D6AA7E4215E9BD815528FCC094683C0FD3A77B4F12E6BA8E5225F9CD9165390CD0A4784C1FE3B78B5F22F6CA9E623609DDA175491CE0B4885C2FF3C79B6F385
:405BC000306DAAE724619EDB185592CF0C4986C3003E7CBAF83674B2F02E6CAAE82664A2E01E5C9AD8165492D00E4C8AC8064482C0FE3C7AB8F63472B0EE2C6AA8E62462DD
:405C0000A0DE1C5A98D6145290CE0C4A88C6044280BEFC3A78B6F43270AEEC2A68A6E422609EDC1A5896D412508ECC0A4886C402407EBCFA3876B4F2306EACEA2866A4E224
:405C4000205E9CDA185694D2104E8CCA084684C2003E7CBAF83674B2F02E6CAAE82664A2E01E5C9AD8165492D00E4C8AC8064482C0FE3C7AB8F63472B0EE2C6AA8E62462E4
:405C8000A0DE1C5A98D6145290CE0C4A88C6044280BEFC3A78B6F43270AEEC2A68A6E422609EDC1A5896D412508ECC0A4886C402407EBCFA3876B4F2306EACEA2866A4E2A4
:405CC000205E9CDA185694D2104E8CCA084684C2003F7EBDFC3B7AB9F83776B5F43372B1F02F6EADEC2B6AA9E82766A5E42362A1E01F5E9DDC1B5A99D8175695D4135291FC
:405D0000D00F4E8DCC0B4A89C8074685C4034281C0FF3E7DBCFB3A79B8F73675B4F33271B0EF2E6DACEB2A69A8E72665A4E32261A0DF1E5D9CDB1A5998D7165594D3125143
:405D400090CF0E4D8CCB0A4988C7064584C3024180BFFE3D7CBBFA3978B7F63574B3F23170AFEE2D6CABEA2968A7E62564A3E221609FDE1D5C9BDA195897D6155493D21103
:405D8000508FCE0D4C8BCA094887C6054483C201407FBEFD3C7BBAF93877B6F53473B2F1306FAEED2C6BAAE92867A6E52463A2E1205F9EDD1C5B9AD9185796D5145392D1C3
:405DC000104F8ECD0C4B8AC9084786C5044382C1004080C0004080C0004080C0004080C0004080C0004080C0004080C0004080C0004080C0004080C0004080C0004080C01B
:405E0000004080C0004080C0004080C0004080C0004080C0004080C0004080C0004080C0004080C0004080C0004080C0004080C0004080C0004080C0004080C0004080C062
:405E4000004080C0004080C0004080C0004080C0004080C0004080C0004080C0004080C0004080C0004080C0004080C0004080C0004080C0004080C0004080C0004080C022
:405E8000004080C0004080C0004080C0004080C0004080C0004080C0004080C0004080C0004080C0004080C0004080C0004080C0004080C0004080C0004080C0004080C0E2
:405EC000004080C0004080C0004080C0004080C0004182C3044586C708498ACB0C4D8ECF105192D3145596D718599ADB1C5D9EDF2061A2E32465A6E72869AAEB2C6DAEEF3A
:405F00003071B2F33475B6F73879BAFB3C7DBEFF4081C2034485C6074889CA0B4C8DCE0F5091D2135495D6175899DA1B5C9DDE1F60A1E22364A5E62768A9EA2B6CADEE2F81
:405F400070B1F23374B5F63778B9FA3B7CBDFE3F80C1024384C5064788C90A4B8CCD0E4F90D1125394D5165798D91A5B9CDD1E5FA0E12263A4E52667A8E92A6BACED2E6F41
:405F8000B0F13273B4F53677B8F93A7BBCFD3E7FC0014283C4054687C8094A8BCC0D4E8FD0115293D4155697D8195A9BDC1D5E9FE02162A3E42566A7E8296AABEC2D6EAF01
:405FC000F03172B3F43576B7F8397ABBFC3D7EBF004284C6084A8CCE105294D6185A9CDE2062A4E6286AACEE3072B4F6387ABCFE4082C406488ACC0E5092D416589ADC1E59
:4060000060A2E42668AAEC2E70B2F43678BAFC3E80C2044688CA0C4E90D2145698DA1C5EA0E22466A8EA2C6EB0F23476B8FA3C7EC0024486C80A4C8ED0125496D81A5C9EA0
:40604000E02264A6E82A6CAEF03274B6F83A7CBE004284C6084A8CCE105294D6185A9CDE2062A4E6286AACEE3072B4F6387ABCFE4082C406488ACC0E5092D416589ADC1E60
:4060800060A2E42668AAEC2E70B2F43678BAFC3E80C2044688CA0C4E90D2145698DA1C5EA0E22466A8EA2C6EB0F23476B8FA3C7EC0024486C80A4C8ED0125496D81A5C9E20
:4060C000E02264A6E82A6CAEF03274B6F83A7CBE004386C90C4F92D5185B9EE12467AAED3073B6F93C7FC205488BCE115497DA1D60A3E6296CAFF23578BBFE4184C70A4D78
:4061000090D316599CDF2265A8EB2E71B4F73A7DC0034689CC0F5295D81B5EA1E4276AADF03376B9FC3F82C5084B8ED114579ADD2063A6E92C6FB2F5387BBE014487CA0DBF
:406140005093D6195C9FE22568ABEE3174B7FA3D80C306498CCF125598DB1E61A4E72A6DB0F33679BCFF4285C80B4E91D4175A9DE02366A9EC2F72B5F83B7EC104478ACD7F
:40618000105396D91C5FA2E5286BAEF13477BAFD4083C6094C8FD215589BDE2164A7EA2D70B3F6397CBF024588CB0E5194D71A5DA0E32669ACEF3275B8FB3E81C4074A8D3F
:4061C000D0135699DC1F62A5E82B6EB1F4377ABD004488CC105498DC2064A8EC3074B8FC4084C80C5094D81C60A4E82C70B4F83C80C4084C90D4185CA0E4286CB0F4387C97
:40620000C004488CD014589CE02468ACF03478BC004488CC105498DC2064A8EC3074B8FC4084C80C5094D81C60A4E82C70B4F83C80C4084C90D4185CA0E4286CB0F4387CDE
:40624000C004488CD014589CE02468ACF03478BC004488CC105498DC2064A8EC3074B8FC4084C80C5094D81C60A4E82C70B4F83C80C4084C90D4185CA0E4286CB0F4387C9E
:40628000C004488CD014589CE02468ACF03478BC004488CC105498DC2064A8EC3074B8FC4084C80C5094D81C60A4E82C70B4F83C80C4084C90D4185CA0E4286CB0F4387C5E
:4062C000C004488CD014589CE02468ACF03478BC00458ACF14599EE3286DB2F73C81C60B5095DA1F64A9EE3378BD02478CD1165BA0E52A6FB4F93E83C80D5297DC2166ABB6
:40630000F0357ABF04498ED3185DA2E72C71B6FB4085CA0F5499DE2368ADF2377CC1064B90D51A5FA4E92E73B8FD4287CC11569BE0256AAFF4397EC3084D92D71C61A6EBFD
:406340003075BAFF4489CE13589DE2276CB1F63B80C50A4F94D91E63A8ED3277BC01468BD0155A9FE4296EB3F83D82C70C5196DB2065AAEF3479BE03488DD2175CA1E62BBD
:4063800070B5FA3F84C90E5398DD2267ACF1367BC0054A8FD4195EA3E82D72B7FC4186CB10559ADF2469AEF3387DC2074C91D61B60A5EA2F74B9FE4388CD12579CE1266B7D
:4063C000B0F53A7FC4094E93D81D62A7EC3176BB00468CD2185EA4EA3076BC02488ED41A60A6EC3278BE044A90D61C62A8EE347AC0064C92D81E64AAF0367CC2084E94DAD5
:406400002066ACF2387EC40A5096DC2268AEF43A80C60C5298DE246AB0F63C82C80E549AE0266CB2F83E84CA10569CE2286EB4FA4086CC12589EE42A70B6FC4288CE145A1C
:40644000A0E62C72B8FE448AD0165CA2E82E74BA00468CD2185EA4EA3076BC02488ED41A60A6EC3278BE044A90D61C62A8EE347AC0064C92D81E64AAF0367CC2084E94DADC
:406480002066ACF2387EC40A5096DC2268AEF43A80C60C5298DE246AB0F63C82C80E549AE0266CB2F83E84CA10569CE2286EB4FA4086CC12589EE42A70B6FC4288CE145A9C
:4064C000A0E62C72B8FE448AD0165CA2E82E74BA00478ED51C63AAF1387FC60D549BE22970B7FE458CD31A61A8EF367DC40B5299E0276EB5FC438AD1185FA6ED347BC209F4
:406500005097DE256CB3FA4188CF165DA4EB3279C0074E95DC236AB1F83F86CD145BA2E93077BE054C93DA2168AFF63D84CB1259A0E72E75BC034A91D81F66ADF43B82C93B
:4065400010579EE52C73BA01488FD61D64ABF23980C70E559CE32A71B8FF468DD41B62A9F0377EC50C539AE1286FB6FD448BD21960A7EE357CC30A5198DF266DB4FB4289FB
:40658000D0175EA5EC337AC1084F96DD246BB2F94087CE155CA3EA3178BF064D94DB2269B0F73E85CC135AA1E82F76BD044B92D92067AEF53C83CA11589FE62D74BB0249BB
:4065C00090D71E65ACF33A81C80F569DE42B72B9004890D82068B0F84088D01860A8F03880C81058A0E83078C0085098E02870B8004890D82068B0F84088D01860A8F03813
:4066000080C81058A0E83078C0085098E02870B8004890D82068B0F84088D01860A8F03880C81058A0E83078C0085098E02870B8004890D82068B0F84088D01860A8F0385A
:4066400080C81058A0E83078C0085098E02870B8004890D82068B0F84088D01860A8F03880C81058A0E83078C0085098E02870B8004890D82068B0F84088D01860A8F0381A
:4066800080C81058A0E83078C0085098E02870B8004890D82068B0F84088D01860A8F03880C81058A0E83078C0085098E02870B8004890D82068B0F84088D01860A8F038DA
:4066C00080C81058A0E83078C0085098E02870B8004992DB246DB6FF4891DA236CB5FE4790D9226BB4FD468FD8216AB3FC458ED72069B2FB448DD61F68B1FA438CD51E6732
:40670000B0F9428BD41D66AFF8418AD31C65AEF74089D21B64ADF63F88D11A63ACF53E87D01962ABF43D86CF1861AAF33C85CE1760A9F23B84CD165FA8F13A83CC155EA779
:40674000F03982CB145DA6EF3881CA135CA5EE3780C9125BA4ED367FC8115AA3EC357EC71059A2EB347DC60F58A1EA337CC50E57A0E9327BC40D569FE8317AC30C559EE739
:406780003079C20B549DE62F78C10A539CE52E77C009529BE42D76BF08519AE32C75BE075099E22B74BD064F98E12A73BC054E97E02972BB044D96DF2871BA034C95DE27F9
:4067C00070B9024B94DD266FB8014A93DC256EB7004A94DE2872BC06509AE42E78C20C56A0EA347EC8125CA6F03A84CE1862ACF6408AD41E68B2FC4690DA246EB8024C9651
:40680000E02A74BE08529CE6307AC40E58A2EC3680CA145EA8F23C86D01A64AEF8428CD6206AB4FE4892DC2670BA044E98E22C76C00A549EE8327CC6105AA4EE3882CC1698
:4068400060AAF43E88D21C66B0FA448ED8226CB6004A94DE2872BC06509AE42E78C20C56A0EA347EC8125CA6F03A84CE1862ACF6408AD41E68B2FC4690DA246EB8024C9658
:40688000E02A74BE08529CE6307AC40E58A2EC3680CA145EA8F23C86D01A64AEF8428CD6206AB4FE4892DC2670BA044E98E22C76C00A549EE8327CC6105AA4EE3882CC1618
:4068C00060AAF43E88D21C66B0FA448ED8226CB6004B96E12C77C20D58A3EE3984CF1A65B0FB4691DC2772BD08539EE9347FCA1560ABF6418CD7226DB8034E99E42F7AC570
:40690000105BA6F13C87D21D68B3FE4994DF2A75C00B56A1EC3782CD1863AEF9448FDA2570BB06519CE7327DC8135EA9F43F8AD5206BB6014C97E22D78C30E59A4EF3A85B7
:40694000D01B66B1FC4792DD2873BE09549FEA3580CB1661ACF7428DD8236EB9044F9AE5307BC6115CA7F23D88D31E69B4FF4A95E02B76C10C57A2ED3883CE1964AFFA4577
:4069800090DB2671BC07529DE8337EC9145FAAF5408BD6216CB7024D98E32E79C40F5AA5F03B86D11C67B2FD4893DE2974BF0A55A0EB3681CC1762ADF8438ED9246FBA0537
:4069C000509BE6317CC7125DA8F33E89D41F6AB5004C98E4307CC81460ACF84490DC2874C00C58A4F03C88D4206CB804509CE83480CC1864B0FC4894E02C78C4105CA8F48F
:406A0000408CD82470BC0854A0EC3884D01C68B4004C98E4307CC81460ACF84490DC2874C00C58A4F03C88D4206CB804509CE83480CC1864B0FC4894E02C78C4105CA8F4D6
:406A4000408CD82470BC0854A0EC3884D01C68B4004C98E4307CC81460ACF84490DC2874C00C58A4F03C88D4206CB804509CE83480CC1864B0FC4894E02C78C4105CA8F496
:406A8000408CD82470BC0854A0EC3884D01C68B4004C98E4307CC81460ACF84490DC2874C00C58A4F03C88D4206CB804509CE83480CC1864B0FC4894E02C78C4105CA8F456
:406AC000408CD82470BC0854A0EC3884D01C68B4004D9AE73481CE1B68B5024F9CE93683D01D6AB704519EEB3885D21F6CB90653A0ED3A87D4216EBB0855A2EF3C89D623AE
:406B000070BD0A57A4F13E8BD82572BF0C59A6F3408DDA2774C10E5BA8F5428FDC2976C3105DAAF74491DE2B78C5125FACF94693E02D7AC71461AEFB4895E22F7CC91663F5
:406B4000B0FD4A97E4317ECB1865B2FF4C99E63380CD1A67B4014E9BE83582CF1C69B603509DEA3784D11E6BB805529FEC3986D3206DBA0754A1EE3B88D5226FBC0956A3B5
:406B8000F03D8AD72471BE0B58A5F23F8CD92673C00D5AA7F4418EDB2875C20F5CA9F64390DD2A77C4115EABF84592DF2C79C61360ADFA4794E12E7BC81562AFFC4996E375
:406BC000307DCA1764B1FE4B98E5327FCC1966B3004E9CEA3886D42270BE0C5AA8F64492E02E7CCA1866B402509EEC3A88D62472C00E5CAAF84694E2307ECC1A68B60452CD
:406C0000A0EE3C8AD82674C2105EACFA4896E43280CE1C6AB80654A2F03E8CDA2876C41260AEFC4A98E63482D01E6CBA0856A4F2408EDC2A78C61462B0FE4C9AE83684D214
:406C4000206EBC0A58A6F44290DE2C7AC81664B2004E9CEA3886D42270BE0C5AA8F64492E02E7CCA1866B402509EEC3A88D62472C00E5CAAF84694E2307ECC1A68B60452D4
:406C8000A0EE3C8AD82674C2105EACFA4896E43280CE1C6AB80654A2F03E8CDA2876C41260AEFC4A98E63482D01E6CBA0856A4F2408EDC2A78C61462B0FE4C9AE83684D294
:406CC000206EBC0A58A6F44290DE2C7AC81664B2004F9EED3C8BDA2978C71665B40352A1F03F8EDD2C7BCA1968B70655A4F34291E02F7ECD1C6BBA0958A7F64594E33281EC
:406D0000D01F6EBD0C5BAAF94897E63584D32271C00F5EADFC4B9AE93887D62574C31261B0FF4E9DEC3B8AD92877C61564B30251A0EF3E8DDC2B7AC91867B60554A3F24133
:406D400090DF2E7DCC1B6AB90857A6F54493E23180CF1E6DBC0B5AA9F84796E53483D22170BF0E5DACFB4A99E83786D52473C21160AFFE4D9CEB3A89D82776C51463B201F3
:406D8000509FEE3D8CDB2A79C81766B50453A2F1408FDE2D7CCB1A69B80756A5F44392E1307FCE1D6CBB0A59A8F74695E43382D1206FBE0D5CABFA4998E73685D42372C1B3
:406DC000105FAEFD4C9BEA3988D72675C41362B10050A0F04090E03080D02070C01060B00050A0F04090E03080D02070C01060B00050A0F04090E03080D02070C01060B00B
:406E00000050A0F04090E03080D02070C01060B00050A0F04090E03080D02070C01060B00050A0F04090E03080D02070C01060B00050A0F04090E03080D02070C01060B052
:406E40000050A0F04090E03080D02070C01060B00050A0F04090E03080D02070C01060B00050A0F04090E03080D02070C01060B00050A0F04090E03080D02070C01060B012
:406E80000050A0F04090E03080D02070C01060B00050A0F04090E03080D02070C01060B00050A0F04090E03080D02070C01060B00050A0F04090E03080D02070C01060B0D2
:406EC0000050A0F04090E03080D02070C01060B00051A2F34495E63788D92A7BCC1D6EBF1061B20354A5F64798E93A8BDC2D7ECF2071C21364B50657A8F94A9BEC3D8EDF2A
:406F00003081D22374C51667B8095AABFC4D9EEF4091E23384D52677C8196ABB0C5DAEFF50A1F24394E53687D8297ACB1C6DBE0F60B10253A4F54697E8398ADB2C7DCE1F71
:406F400070C11263B40556A7F8499AEB3C8DDE2F80D12273C41566B70859AAFB4C9DEE3F90E13283D42576C71869BA0B5CADFE4FA0F14293E43586D72879CA1B6CBD0E5F31
:406F8000B00152A3F44596E73889DA2B7CCD1E6FC01162B30455A6F74899EA3B8CDD2E7FD02172C31465B60758A9FA4B9CED3E8FE03182D32475C61768B90A5BACFD4E9FF1
:406FC000F04192E33485D62778C91A6BBC0D5EAF0052A4F6489AEC3E90E23486D82A7CCE2072C41668BA0C5EB00254A6F84A9CEE4092E43688DA2C7ED02274C6186ABC0E49
:4070000060B20456A8FA4C9EF04294E6388ADC2E80D22476C81A6CBE1062B40658AAFC4EA0F24496E83A8CDE3082D42678CA1C6EC01264B6085AACFE50A2F44698EA3C8E90
:40704000E03284D6287ACC1E70C21466B80A5CAE0052A4F6489AEC3E90E23486D82A7CCE2072C41668BA0C5EB00254A6F84A9CEE4092E43688DA2C7ED02274C6186ABC0E50
:4070800060B20456A8FA4C9EF04294E6388ADC2E80D22476C81A6CBE1062B40658AAFC4EA0F24496E83A8CDE3082D42678CA1C6EC01264B6085AACFE50A2F44698EA3C8E10
:4070C000E03284D6287ACC1E70C21466B80A5CAE0053A6F94C9FF24598EB3E91E4378ADD3083D6297CCF2275C81B6EC11467BA0D60B30659ACFF52A5F84B9EF14497EA3D68
:4071000090E33689DC2F82D5287BCE2174C71A6DC01366B90C5FB20558ABFE51A4F74A9DF04396E93C8FE23588DB2E81D4277ACD2073C6196CBF1265B80B5EB10457AAFDAF
:4071400050A3F6499CEF4295E83B8EE13487DA2D80D32679CC1F72C5186BBE1164B70A5DB00356A9FC4FA2F5489BEE4194E73A8DE03386D92C7FD22578CB1E71C4176ABD6F
:407180001063B6095CAF0255A8FB4EA1F4479AED4093E6398CDF3285D82B7ED12477CA1D70C31669BC0F62B5085BAE0154A7FA4DA0F34699EC3F92E5388BDE3184D72A7D2F
:4071C000D02376C91C6FC21568BB0E61B4075AAD0054A8FC50A4F84CA0F4489CF04498EC4094E83C90E4388CE03488DC3084D82C80D4287CD02478CC2074C81C70C4186C87
:40720000C01468BC1064B80C60B4085CB00458AC0054A8FC50A4F84CA0F4489CF04498EC4094E83C90E4388CE03488DC3084D82C80D4287CD02478CC2074C81C70C4186CCE
